{
  "_format": "hh3-artifact-1",
  "contractName": "DuchAuction",
  "sourceName": "contracts/auctions/AuctionManager.sol",
  "abi": [
    {
      "inputs": [],
      "stateMutability": "nonpayable",
      "type": "constructor"
    },
    {
      "inputs": [],
      "name": "AccessControlBadConfirmation",
      "type": "error"
    },
    {
      "inputs": [
        {
          "internalType": "address",
          "name": "account",
          "type": "address"
        },
        {
          "internalType": "bytes32",
          "name": "neededRole",
          "type": "bytes32"
        }
      ],
      "name": "AccessControlUnauthorizedAccount",
      "type": "error"
    },
    {
      "inputs": [],
      "name": "ReentrancyGuardReentrantCall",
      "type": "error"
    },
    {
      "anonymous": false,
      "inputs": [
        {
          "indexed": true,
          "internalType": "bytes32",
          "name": "parameter",
          "type": "bytes32"
        },
        {
          "indexed": false,
          "internalType": "address",
          "name": "addr",
          "type": "address"
        }
      ],
      "name": "AddressChanged",
      "type": "event"
    },
    {
      "anonymous": false,
      "inputs": [
        {
          "indexed": true,
          "internalType": "address",
          "name": "user",
          "type": "address"
        }
      ],
      "name": "AdminAccessGranted",
      "type": "event"
    },
    {
      "anonymous": false,
      "inputs": [
        {
          "indexed": true,
          "internalType": "address",
          "name": "user",
          "type": "address"
        }
      ],
      "name": "AdminAccessRevoked",
      "type": "event"
    },
    {
      "anonymous": false,
      "inputs": [
        {
          "indexed": false,
          "internalType": "uint256",
          "name": "auctionId",
          "type": "uint256"
        }
      ],
      "name": "AuctionCancelled",
      "type": "event"
    },
    {
      "anonymous": false,
      "inputs": [
        {
          "indexed": false,
          "internalType": "uint256",
          "name": "auctionId",
          "type": "uint256"
        }
      ],
      "name": "AuctionRemoved",
      "type": "event"
    },
    {
      "anonymous": false,
      "inputs": [
        {
          "indexed": true,
          "internalType": "uint256",
          "name": "auctionId",
          "type": "uint256"
        },
        {
          "indexed": false,
          "internalType": "uint256",
          "name": "newStartingPrice",
          "type": "uint256"
        },
        {
          "indexed": false,
          "internalType": "uint256",
          "name": "underlyingAmount",
          "type": "uint256"
        },
        {
          "indexed": false,
          "internalType": "address",
          "name": "originalOwner",
          "type": "address"
        },
        {
          "indexed": true,
          "internalType": "uint256",
          "name": "tokenId",
          "type": "uint256"
        },
        {
          "indexed": true,
          "internalType": "address",
          "name": "triggerer",
          "type": "address"
        },
        {
          "indexed": false,
          "internalType": "uint256",
          "name": "rewardAmount",
          "type": "uint256"
        }
      ],
      "name": "AuctionReset",
      "type": "event"
    },
    {
      "anonymous": false,
      "inputs": [
        {
          "indexed": true,
          "internalType": "uint256",
          "name": "auctionId",
          "type": "uint256"
        },
        {
          "indexed": false,
          "internalType": "uint256",
          "name": "startingPrice",
          "type": "uint256"
        },
        {
          "indexed": false,
          "internalType": "uint256",
          "name": "underlyinglAmount",
          "type": "uint256"
        },
        {
          "indexed": false,
          "internalType": "address",
          "name": "originalOwner",
          "type": "address"
        },
        {
          "indexed": true,
          "internalType": "uint256",
          "name": "tokenId",
          "type": "uint256"
        },
        {
          "indexed": true,
          "internalType": "address",
          "name": "triggerer",
          "type": "address"
        },
        {
          "indexed": false,
          "internalType": "uint256",
          "name": "rewardAmount",
          "type": "uint256"
        }
      ],
      "name": "AuctionStarted",
      "type": "event"
    },
    {
      "anonymous": false,
      "inputs": [
        {
          "indexed": true,
          "internalType": "address",
          "name": "user",
          "type": "address"
        }
      ],
      "name": "CallerAccessGranted",
      "type": "event"
    },
    {
      "anonymous": false,
      "inputs": [
        {
          "indexed": true,
          "internalType": "address",
          "name": "user",
          "type": "address"
        }
      ],
      "name": "CallerAccessRevoked",
      "type": "event"
    },
    {
      "anonymous": false,
      "inputs": [
        {
          "indexed": true,
          "internalType": "bytes32",
          "name": "parameter",
          "type": "bytes32"
        },
        {
          "indexed": false,
          "internalType": "uint256",
          "name": "value",
          "type": "uint256"
        }
      ],
      "name": "ParameterChanged",
      "type": "event"
    },
    {
      "anonymous": false,
      "inputs": [
        {
          "indexed": true,
          "internalType": "uint256",
          "name": "auctionId",
          "type": "uint256"
        },
        {
          "indexed": false,
          "internalType": "uint256",
          "name": "maxAcceptablePrice",
          "type": "uint256"
        },
        {
          "indexed": false,
          "internalType": "uint256",
          "name": "currentPrice",
          "type": "uint256"
        },
        {
          "indexed": false,
          "internalType": "uint256",
          "name": "paymentAmount",
          "type": "uint256"
        },
        {
          "indexed": false,
          "internalType": "uint256",
          "name": "remainingunderlying",
          "type": "uint256"
        },
        {
          "indexed": true,
          "internalType": "address",
          "name": "kpr",
          "type": "address"
        },
        {
          "indexed": true,
          "internalType": "address",
          "name": "originalOwner",
          "type": "address"
        }
      ],
      "name": "PurchaseMade",
      "type": "event"
    },
    {
      "anonymous": false,
      "inputs": [
        {
          "indexed": true,
          "internalType": "bytes32",
          "name": "role",
          "type": "bytes32"
        },
        {
          "indexed": true,
          "internalType": "bytes32",
          "name": "previousAdminRole",
          "type": "bytes32"
        },
        {
          "indexed": true,
          "internalType": "bytes32",
          "name": "newAdminRole",
          "type": "bytes32"
        }
      ],
      "name": "RoleAdminChanged",
      "type": "event"
    },
    {
      "anonymous": false,
      "inputs": [
        {
          "indexed": true,
          "internalType": "bytes32",
          "name": "role",
          "type": "bytes32"
        },
        {
          "indexed": true,
          "internalType": "address",
          "name": "account",
          "type": "address"
        },
        {
          "indexed": true,
          "internalType": "address",
          "name": "sender",
          "type": "address"
        }
      ],
      "name": "RoleGranted",
      "type": "event"
    },
    {
      "anonymous": false,
      "inputs": [
        {
          "indexed": true,
          "internalType": "bytes32",
          "name": "role",
          "type": "bytes32"
        },
        {
          "indexed": true,
          "internalType": "address",
          "name": "account",
          "type": "address"
        },
        {
          "indexed": true,
          "internalType": "address",
          "name": "sender",
          "type": "address"
        }
      ],
      "name": "RoleRevoked",
      "type": "event"
    },
    {
      "inputs": [],
      "name": "ADMIN_ROLE",
      "outputs": [
        {
          "internalType": "bytes32",
          "name": "",
          "type": "bytes32"
        }
      ],
      "stateMutability": "view",
      "type": "function"
    },
    {
      "inputs": [],
      "name": "CALLER_ROLE",
      "outputs": [
        {
          "internalType": "bytes32",
          "name": "",
          "type": "bytes32"
        }
      ],
      "stateMutability": "view",
      "type": "function"
    },
    {
      "inputs": [],
      "name": "DEFAULT_ADMIN_ROLE",
      "outputs": [
        {
          "internalType": "bytes32",
          "name": "",
          "type": "bytes32"
        }
      ],
      "stateMutability": "view",
      "type": "function"
    },
    {
      "inputs": [],
      "name": "PRECISION_DECIMALS",
      "outputs": [
        {
          "internalType": "uint8",
          "name": "",
          "type": "uint8"
        }
      ],
      "stateMutability": "view",
      "type": "function"
    },
    {
      "inputs": [],
      "name": "PRECISION_UNIT",
      "outputs": [
        {
          "internalType": "uint256",
          "name": "",
          "type": "uint256"
        }
      ],
      "stateMutability": "view",
      "type": "function"
    },
    {
      "inputs": [],
      "name": "activeAuctionCount",
      "outputs": [
        {
          "internalType": "uint256",
          "name": "",
          "type": "uint256"
        }
      ],
      "stateMutability": "view",
      "type": "function"
    },
    {
      "inputs": [
        {
          "internalType": "uint256",
          "name": "auctionId",
          "type": "uint256"
        }
      ],
      "name": "auctionIsActive",
      "outputs": [
        {
          "internalType": "bool",
          "name": "",
          "type": "bool"
        }
      ],
      "stateMutability": "view",
      "type": "function"
    },
    {
      "inputs": [],
      "name": "auctionParams",
      "outputs": [
        {
          "internalType": "uint256",
          "name": "priceMultiplier",
          "type": "uint256"
        },
        {
          "internalType": "uint256",
          "name": "resetTime",
          "type": "uint256"
        },
        {
          "internalType": "uint256",
          "name": "priceDropThreshold",
          "type": "uint256"
        },
        {
          "internalType": "uint256",
          "name": "percentageReward",
          "type": "uint256"
        },
        {
          "internalType": "uint256",
          "name": "fixedReward",
          "type": "uint256"
        },
        {
          "internalType": "uint256",
          "name": "minAuctionAmount",
          "type": "uint256"
        }
      ],
      "stateMutability": "view",
      "type": "function"
    },
    {
      "inputs": [
        {
          "internalType": "uint256",
          "name": "",
          "type": "uint256"
        }
      ],
      "name": "auctions",
      "outputs": [
        {
          "internalType": "uint256",
          "name": "arrayIndex",
          "type": "uint256"
        },
        {
          "internalType": "uint256",
          "name": "underlyingAmount",
          "type": "uint256"
        },
        {
          "internalType": "address",
          "name": "originalOwner",
          "type": "address"
        },
        {
          "internalType": "uint256",
          "name": "tokenId",
          "type": "uint256"
        },
        {
          "internalType": "uint96",
          "name": "startTime",
          "type": "uint96"
        },
        {
          "internalType": "uint256",
          "name": "startingPrice",
          "type": "uint256"
        },
        {
          "internalType": "uint256",
          "name": "currentPrice",
          "type": "uint256"
        },
        {
          "internalType": "uint256",
          "name": "totalPayment",
          "type": "uint256"
        }
      ],
      "stateMutability": "view",
      "type": "function"
    },
    {
      "inputs": [
        {
          "internalType": "uint256",
          "name": "auctionId",
          "type": "uint256"
        }
      ],
      "name": "cancelAuction",
      "outputs": [],
      "stateMutability": "nonpayable",
      "type": "function"
    },
    {
      "inputs": [],
      "name": "circuitBreaker",
      "outputs": [
        {
          "internalType": "uint256",
          "name": "",
          "type": "uint256"
        }
      ],
      "stateMutability": "view",
      "type": "function"
    },
    {
      "inputs": [],
      "name": "custodian",
      "outputs": [
        {
          "internalType": "contract CustodianLike_Auction",
          "name": "",
          "type": "address"
        }
      ],
      "stateMutability": "view",
      "type": "function"
    },
    {
      "inputs": [],
      "name": "getActiveAuctionCount",
      "outputs": [
        {
          "internalType": "uint256",
          "name": "",
          "type": "uint256"
        }
      ],
      "stateMutability": "view",
      "type": "function"
    },
    {
      "inputs": [
        {
          "internalType": "uint256",
          "name": "auctionId",
          "type": "uint256"
        }
      ],
      "name": "getAuctionStatus",
      "outputs": [
        {
          "internalType": "bool",
          "name": "needsReset",
          "type": "bool"
        },
        {
          "internalType": "uint256",
          "name": "currentPrice",
          "type": "uint256"
        },
        {
          "internalType": "uint256",
          "name": "underlyingAmount",
          "type": "uint256"
        }
      ],
      "stateMutability": "view",
      "type": "function"
    },
    {
      "inputs": [
        {
          "internalType": "bytes32",
          "name": "role",
          "type": "bytes32"
        }
      ],
      "name": "getRoleAdmin",
      "outputs": [
        {
          "internalType": "bytes32",
          "name": "",
          "type": "bytes32"
        }
      ],
      "stateMutability": "view",
      "type": "function"
    },
    {
      "inputs": [
        {
          "internalType": "address",
          "name": "account",
          "type": "address"
        }
      ],
      "name": "grantAdminRole",
      "outputs": [],
      "stateMutability": "nonpayable",
      "type": "function"
    },
    {
      "inputs": [
        {
          "internalType": "address",
          "name": "account",
          "type": "address"
        }
      ],
      "name": "grantCallerRole",
      "outputs": [],
      "stateMutability": "nonpayable",
      "type": "function"
    },
    {
      "inputs": [
        {
          "internalType": "bytes32",
          "name": "role",
          "type": "bytes32"
        },
        {
          "internalType": "address",
          "name": "account",
          "type": "address"
        }
      ],
      "name": "grantRole",
      "outputs": [],
      "stateMutability": "nonpayable",
      "type": "function"
    },
    {
      "inputs": [
        {
          "internalType": "bytes32",
          "name": "role",
          "type": "bytes32"
        },
        {
          "internalType": "address",
          "name": "account",
          "type": "address"
        }
      ],
      "name": "hasRole",
      "outputs": [
        {
          "internalType": "bool",
          "name": "",
          "type": "bool"
        }
      ],
      "stateMutability": "view",
      "type": "function"
    },
    {
      "inputs": [
        {
          "internalType": "uint256",
          "name": "",
          "type": "uint256"
        }
      ],
      "name": "isActiveAuction",
      "outputs": [
        {
          "internalType": "bool",
          "name": "",
          "type": "bool"
        }
      ],
      "stateMutability": "view",
      "type": "function"
    },
    {
      "inputs": [],
      "name": "liquidationManager",
      "outputs": [
        {
          "internalType": "contract LiquidationLike",
          "name": "",
          "type": "address"
        }
      ],
      "stateMutability": "view",
      "type": "function"
    },
    {
      "inputs": [],
      "name": "priceCalculator",
      "outputs": [
        {
          "internalType": "contract AbacusLike",
          "name": "",
          "type": "address"
        }
      ],
      "stateMutability": "view",
      "type": "function"
    },
    {
      "inputs": [
        {
          "internalType": "uint256",
          "name": "auctionId",
          "type": "uint256"
        },
        {
          "internalType": "uint256",
          "name": "maxPurchaseAmount",
          "type": "uint256"
        },
        {
          "internalType": "uint256",
          "name": "maxAcceptablePrice",
          "type": "uint256"
        },
        {
          "internalType": "address",
          "name": "receiver",
          "type": "address"
        },
        {
          "internalType": "bytes",
          "name": "callData",
          "type": "bytes"
        }
      ],
      "name": "purchaseUnderlying",
      "outputs": [],
      "stateMutability": "nonpayable",
      "type": "function"
    },
    {
      "inputs": [
        {
          "internalType": "bytes32",
          "name": "role",
          "type": "bytes32"
        },
        {
          "internalType": "address",
          "name": "callerConfirmation",
          "type": "address"
        }
      ],
      "name": "renounceRole",
      "outputs": [],
      "stateMutability": "nonpayable",
      "type": "function"
    },
    {
      "inputs": [
        {
          "internalType": "uint256",
          "name": "auctionId",
          "type": "uint256"
        },
        {
          "internalType": "address",
          "name": "triggerer",
          "type": "address"
        }
      ],
      "name": "resetAuction",
      "outputs": [],
      "stateMutability": "nonpayable",
      "type": "function"
    },
    {
      "inputs": [
        {
          "internalType": "address",
          "name": "account",
          "type": "address"
        }
      ],
      "name": "revokeAdminRole",
      "outputs": [],
      "stateMutability": "nonpayable",
      "type": "function"
    },
    {
      "inputs": [
        {
          "internalType": "address",
          "name": "account",
          "type": "address"
        }
      ],
      "name": "revokeCallerRole",
      "outputs": [],
      "stateMutability": "nonpayable",
      "type": "function"
    },
    {
      "inputs": [
        {
          "internalType": "bytes32",
          "name": "role",
          "type": "bytes32"
        },
        {
          "internalType": "address",
          "name": "account",
          "type": "address"
        }
      ],
      "name": "revokeRole",
      "outputs": [],
      "stateMutability": "nonpayable",
      "type": "function"
    },
    {
      "inputs": [
        {
          "internalType": "bytes32",
          "name": "parameter",
          "type": "bytes32"
        },
        {
          "internalType": "address",
          "name": "addr",
          "type": "address"
        }
      ],
      "name": "setAddress",
      "outputs": [],
      "stateMutability": "nonpayable",
      "type": "function"
    },
    {
      "inputs": [
        {
          "internalType": "bytes32",
          "name": "parameter",
          "type": "bytes32"
        },
        {
          "internalType": "uint256",
          "name": "value",
          "type": "uint256"
        }
      ],
      "name": "setParameter",
      "outputs": [],
      "stateMutability": "nonpayable",
      "type": "function"
    },
    {
      "inputs": [],
      "name": "stableToken",
      "outputs": [
        {
          "internalType": "contract StableLike_Auction",
          "name": "",
          "type": "address"
        }
      ],
      "stateMutability": "view",
      "type": "function"
    },
    {
      "inputs": [
        {
          "internalType": "uint256",
          "name": "underlyingAmount",
          "type": "uint256"
        },
        {
          "internalType": "address",
          "name": "originalOwner",
          "type": "address"
        },
        {
          "internalType": "uint256",
          "name": "tokenId",
          "type": "uint256"
        },
        {
          "internalType": "address",
          "name": "triggerer",
          "type": "address"
        }
      ],
      "name": "startAuction",
      "outputs": [
        {
          "internalType": "uint256",
          "name": "auctionId",
          "type": "uint256"
        }
      ],
      "stateMutability": "nonpayable",
      "type": "function"
    },
    {
      "inputs": [
        {
          "internalType": "bytes4",
          "name": "interfaceId",
          "type": "bytes4"
        }
      ],
      "name": "supportsInterface",
      "outputs": [
        {
          "internalType": "bool",
          "name": "",
          "type": "bool"
        }
      ],
      "stateMutability": "view",
      "type": "function"
    },
    {
      "inputs": [],
      "name": "totalAuctions",
      "outputs": [
        {
          "internalType": "uint256",
          "name": "",
          "type": "uint256"
        }
      ],
      "stateMutability": "view",
      "type": "function"
    }
  ],
  "bytecode": "0x60806040523461005d57600180555f600c555f60105561001e33610061565b50610028336100d7565b50604051337fc36befb96151814c16fe0d20f29a5912794cda96453e57ab00edad0bb21d50fa5f80a261240d908161016b8239f35b5f80fd5b6001600160a01b0381165f9081525f5160206125b85f395f51905f52602052604090205460ff166100d2576001600160a01b03165f8181525f5160206125b85f395f51905f5260205260408120805460ff191660011790553391905f5160206125785f395f51905f528180a4600190565b505f90565b6001600160a01b0381165f9081525f5160206125985f395f51905f52602052604090205460ff166100d2576001600160a01b03165f8181525f5160206125985f395f51905f5260205260408120805460ff191660011790553391907fa49807205ce4d355092ef5a8a18f56e8913cf4a201fbe287825b095693c21775905f5160206125785f395f51905f529080a460019056fe6080806040526004361015610012575f80fd5b5f905f3560e01c90816301ffc9a714611b3b575080630817544e14611aa157806316002f4a14611a8457806316efd94114611a675780631ef3a04c14611a3f578063248a9ca314611a0d5780632f2ff15d146119d057806336568abe1461198a578063375b74c3146119625780634ca3f169146118c8578063568f02f814611881578063571a26a0146117f957806360ebfee6146117de578063723507be1461164f57806372e2867d1461163257806375b238fc1461160b578063774237fc146115e45780637765c52c146114fe5780638b95e335146114d657806391d148541461148e57806396b5a755146113d65780639a19c7b01461133c578063a217fddf14611322578063a9d75b2b146112fa578063acc06cdd146112cb578063af36053d146112a9578063c634b78e1461120f578063ca446dd914610ff4578063cba63651146108b9578063cff39381146105ed578063d4873ed8146105cf578063d547741f14610588578063f1028b50146101c55763f914328714610194575f80fd5b346101c25760203660031901126101c25760ff60406020926004358152600d84522054166040519015158152f35b80fd5b50346101c25760803660031901126101c257600435906101e3611ba4565b906044356101ef611bba565b5f5160206123385f395f51905f52835260208381526040808520335f908152925290205460ff161561056457610223612100565b610231600160105410611bd0565b841561050c576001600160a01b03841661024c811515611c4a565b610257600c54611d08565b9485600c5585156104bb578491868352600d60205260408320600160ff19825416179055610286600e54611d08565b600e55868352600f602052876001604085200155868352600f60205260026040842001906001600160601b0360a01b825416179055858252600f602052836003604084200155858252600f602052600460408320016001600160601b03804216166001600160601b0319825416179055604060018060a01b03600254166004825180958193638e15f47360e01b83525af19182156104b057859261047e575b506103326006548361227b565b9461033e861515611cac565b868152600f602052856005604083200155600a5460095482948215801590610475575b6103c7575b50506040805197885260208089019a909a526001600160a01b039384169088015250506060850191909152169183907fe594fc5b5d00c48225dd94860ef4354b2728868f56ac3268f4e509052528229690608090a460018055604051908152f35b600b546103d4828d61227b565b10610366576103f8939550906103ed6103f2928c61227b565b61227b565b906122cf565b6002549092906001600160a01b0316803b1561047157604051631289c44760e01b81526001600160a01b0386166004820152602481018590529082908290604490829084905af1801561046657610451575b8080610366565b61045c828092611c14565b6101c2578061044a565b6040513d84823e3d90fd5b5080fd5b50811515610361565b6104a191925060403d6040116104a9575b6104998183611c14565b810190611c96565b50905f610325565b503d61048f565b6040513d87823e3d90fd5b60405162461bcd60e51b815260206004820152602360248201527f41756374696f6e2049442073686f756c64206265206c6172676572207468616e60448201526220302160e81b6064820152608490fd5b60405162461bcd60e51b815260206004820152602a60248201527f556e6465726c79696e6720416d6f756e742073686f756c64206265206c6172676044820152696572207468616e20302160b01b6064820152608490fd5b63e2517d3f60e01b8352336004525f5160206123385f395f51905f52602452604483fd5b50346101c25760403660031901126101c2576105cb6004356105a8611ba4565b906105c66105c1825f525f602052600160405f20015490565b611d73565b612080565b5080f35b50346101c257806003193601126101c2576020600e54604051908152f35b50346101c25760403660031901126101c25760043561060a611ba4565b90610613612100565b610621600260105410611bd0565b808352600f60205260018060a01b0360026040852001541690808452600f6020526106776001600160601b03600460408720015416828652600f602052600560408720015490610672851515611c4a565b612120565b501561086a57808452600f602081815260408087206001015484885292909152808620600490810180546bffffffffffffffffffffffff1916426001600160601b03161790556002548251638e15f47360e01b815296939291879182908a906001600160a01b03165af194851561085f57869561083d575b506106fc6006548661227b565b94610708861515611cac565b838752600f602052856005604089200155600a5460095488928215801590610834575b610799575b505050838752600f60209081526040808920600301548151988952918801939093526001600160a01b039586169287019290925260608601529216927f89c34766cb09fcf955bdfcca8541c2f4ecea66393f9c2df77e83871b37c6964890608090a46001805580f35b600b546107a6828761227b565b10610730576107be9350906103ed6103f2928661227b565b60025490929087906001600160a01b0316803b1561047157604051631289c44760e01b81526001600160a01b0384166004820152602481018690529082908290604490829084905af180156104665761081b575b80949294610730565b8161082591611c14565b61083057865f610812565b8680fd5b5081151561072b565b61085791955060403d6040116104a9576104998183611c14565b50935f6106ef565b6040513d88823e3d90fd5b60405162461bcd60e51b815260206004820152602160248201527f41756374696f6e206973206e6f7420726561647920746f2062652072657365746044820152602160f81b6064820152608490fd5b5034610d145760a0366003190112610d14576024356044356004356108dc611bba565b6084359067ffffffffffffffff8211610d145736602383011215610d1457816004013567ffffffffffffffff8111610d14573660248285010111610d1457610922612100565b610930600360105410611bd0565b6003546001600160a01b0316908115610faf5761094d868861227b565b6044602060018060a01b03600254169460405192838092636eb1769f60e11b82523360048301528860248301525afa908115610d09575f91610f7d575b5010610ef5575f858152600f60205260409020600201546001600160a01b0316968715610ebc575f868152600f6020526040902060048101546005909101546109db916001600160601b0316612120565b9290610e7757828810610e22575f878152600f602052604090206001015491808311610e1c575081955b869283610a12868a61227b565b9882610a1e888261227b565b91109081610d18575b5050610a32916122c2565b94803b15610d145760405163dfc9afe360e01b81526001600160a01b038816600482015260248101859052905f908290604490829084905af18015610d0957610cf0575b506004548b93929190821515906001600160a01b031681610cd7575b81610cc3575b50610c32575b50506002546001600160a01b03169050803b156104715760405163ab4fb0a360e01b8152336004820152602481018790529082908290604490829084905af1801561046657610c1d575b50859052600f602052610b0284600760408b2001546122cf565b858952600f602052600760408a2001558760018060a01b0360045416868252600f602052600360408320015490878352600f602052600760408420015491813b15610c195760848b85809460405196879586946329ab9fcd60e01b86526004860152602485015260448401528960648401525af1801561046657610bfa575b5050907f323b6597d722d7ad8077c780a1bf7b574253ba41faffd0a6f2c9d107bc559794936080939282155f14610be457610bbb876121d5565b60408051988952602089019190915287015260608601526001600160a01b031693a46001805580f35b868a52600f60205282600160408c200155610bbb565b81610c089195949395611c14565b610c15579091875f610b81565b8780fd5b8380fd5b81610c2791611c14565b610c1557875f610ae8565b6001600160a01b038716803b15610cbf576024938560a48b868397604051998a9889978895634229608760e11b87523360048801528387015260448601526080606486015282608486015201848401378181018301849052601f01601f191681010301925af1801561046657610caa575b8080610a9e565b81610cb491611c14565b610c1557875f610ca3565b8480fd5b6001600160a01b038916141590505f610a98565b6002546001600160a01b038a8116911614159150610a92565b610cff9193929b505f90611c14565b5f9990915f610a76565b6040513d5f823e3d90fd5b5f80fd5b600b54925090828210610d6c575b5081610d328b836122c2565b10610d3f575b8591610a27565b90919450610d4e9298506122c2565b95610a32610d6485610d5f8a6122e3565b61225d565b93905f610d38565b610d76575f610d26565b60405162461bcd60e51b815260206004820152606c60248201527f43757272656e7420756e6465726c79696e6720616d6f756e7420697320746f6f60448201527f20736d616c6c2c20706c6561736520696e63726561736520796f7572206d617860648201527f696d756d20707572636861736520616d6f756e7420616e642062757920616c6c60848201526b103ab73232b9363cb4b7339760a11b60a482015260c490fd5b95610a05565b60405162461bcd60e51b815260206004820152602760248201527f43757272656e742070726963652069732061626f76652061636365707461626c6044820152666520707269636560c81b6064820152608490fd5b60405162461bcd60e51b815260206004820152601960248201527f41756374696f6e206e6565647320746f206265207265736574000000000000006044820152606490fd5b60405162461bcd60e51b815260206004820152601160248201527041756374696f6e206e6f7420726561647960781b6044820152606490fd5b60405162461bcd60e51b815260206004820152605460248201527f496e73756666696369656e7420617070726f76616c2e20506c6561736520617060448201527f70726f766520437573746f6469616e20636f6e747261637420746f207370656e6064820152736420796f757220737461626c6520746f6b656e7360601b608482015260a490fd5b90506020813d602011610fa7575b81610f9860209383611c14565b81010312610d1457515f61098a565b3d9150610f8b565b60405162461bcd60e51b815260206004820152601e60248201527f737461626c65546f6b656e2061646472657373206973206e6f742073657400006044820152606490fd5b34610d14576040366003190112610d1457600435611010611ba4565b611018611d2a565b611020612100565b6831bab9ba37b234b0b760b91b820361107857600280546001600160a01b0319166001600160a01b0383161790555f5160206123185f395f51905f52906020905b6040516001600160a01b039091168152a260018055005b713634b8bab4b230ba34b7b726b0b730b3b2b960711b820361113f57600480546001600160a01b0319166001600160a01b0383169081179091555f5160206123185f395f51905f52916020916110cc611d2a565b5f5160206123385f395f51905f525f9081526020527ff11ed99ef1eb7fdaaafd786162d5e36830f2a0e1abc5d101d5a5d2cde3da8bb25461110c90611d73565b61111582611dab565b507f0fcfc8d72d308a68b4d24573172c3fc2a526bc8ffd9bcc7f099778ff8c4fd9c35f80a2611061565b6e383934b1b2a1b0b631bab630ba37b960891b820361118a57600580546001600160a01b0319166001600160a01b0383161790555f5160206123185f395f51905f5290602090611061565b6a39ba30b13632aa37b5b2b760a91b82036111d157600380546001600160a01b0319166001600160a01b0383161790555f5160206123185f395f51905f5290602090611061565b60405162461bcd60e51b81526020600482015260166024820152752ab73932b1b7b3b734bd32b2103830b930b6b2ba32b960511b6044820152606490fd5b34610d14576020366003190112610d1457611228611b8e565b611230611d2a565b5f5160206123b85f395f51905f525f9081526020527f7d7ffb7a348e1c6a02869081a26547b49160dd3df72d1d75a570eb9b698292ed5461127090611d73565b61127981611e43565b506001600160a01b03167fc36befb96151814c16fe0d20f29a5912794cda96453e57ab00edad0bb21d50fa5f80a2005b34610d14575f366003190112610d14576020604051670de0b6b3a76400008152f35b34610d14576020366003190112610d14576004355f52600d602052602060ff60405f2054166040519015158152f35b34610d14575f366003190112610d14576003546040516001600160a01b039091168152602090f35b34610d14575f366003190112610d145760206040515f8152f35b34610d14576020366003190112610d1457611355611b8e565b61135d611d2a565b5f5160206123b85f395f51905f525f9081526020527f7d7ffb7a348e1c6a02869081a26547b49160dd3df72d1d75a570eb9b698292ed5461139d90611d73565b6113a681611fef565b506001600160a01b03167f998b1c8c2c4e47baeddde4d4152dfae31548fb5e6aa5fc2026808fa365a30e7c5f80a2005b34610d14576020366003190112610d14576004356113f2611d2a565b6113fa612100565b5f818152600f60205260409020600201546001600160a01b031615611453576020816114467f2809c7e17bf978fbc7194c0a694b638c4215e9140cacc6c38ca36010b45697df936121d5565b604051908152a160018055005b60405162461bcd60e51b8152602060048201526013602482015272105d58dd1a5bdb881b9bdd081cdd185c9d1959606a1b6044820152606490fd5b34610d14576040366003190112610d14576114a7611ba4565b6004355f525f60205260405f209060018060a01b03165f52602052602060ff60405f2054166040519015158152f35b34610d14575f366003190112610d14576005546040516001600160a01b039091168152602090f35b34610d14576020366003190112610d1457600435805f52600d60205260ff60405f2054161561159f575f818152600f60205260409020600281015460048201546005909201546060936001600160a01b039092169261156691906001600160601b0316612120565b91909215159283611597575b505f52600f602052600160405f20015490604051921515835260208301526040820152f35b925084611572565b60405162461bcd60e51b815260206004820152601a60248201527f546865206163756374696f6e206973206e6f74206163746976650000000000006044820152606490fd5b34610d14575f366003190112610d145760206040515f5160206123385f395f51905f528152f35b34610d14575f366003190112610d145760206040515f5160206123b85f395f51905f528152f35b34610d14575f366003190112610d14576020600e54604051908152f35b34610d14576040366003190112610d145760043560243561166e611d2a565b611676612100565b6e383934b1b2a6bab63a34b83634b2b960891b82036116b2576020815f5160206123785f395f51905f52926006555b604051908152a260018055005b68726573657454696d6560b81b82036116df576020815f5160206123785f395f51905f52926007556116a5565b6f1b5a5b905d58dd1a5bdb905b5bdd5b9d60821b8203611713576020815f5160206123785f395f51905f5292600b556116a5565b711c1c9a58d9511c9bdc151a1c995cda1bdb1960721b8203611749576020815f5160206123785f395f51905f52926008556116a5565b6f1c195c98d95b9d1859d954995dd85c9960821b820361177d576020815f5160206123785f395f51905f52926009556116a5565b6a199a5e195914995dd85c9960aa1b82036117ac576020815f5160206123785f395f51905f5292600a556116a5565b6d31b4b931bab4ba213932b0b5b2b960911b82036111d1576020815f5160206123785f395f51905f52926010556116a5565b34610d14575f366003190112610d1457602060405160128152f35b34610d14576020366003190112610d14576004355f52600f60205261010060405f2080549060018101549060018060a01b0360028201541660038201546001600160601b03600484015416906005840154926007600686015495015495604051978852602088015260408701526060860152608085015260a084015260c083015260e0820152f35b34610d14575f366003190112610d145760c0600654600754600854600954600a5491600b5493604051958652602086015260408501526060840152608083015260a0820152f35b34610d14576020366003190112610d14576118e1611b8e565b6118e9611d2a565b5f5160206123385f395f51905f525f9081526020527ff11ed99ef1eb7fdaaafd786162d5e36830f2a0e1abc5d101d5a5d2cde3da8bb25461192990611d73565b61193281611f5e565b506001600160a01b03167f3d8ac96952c09594f2bd46a75dd349e4c54685eddbc360a657262e17646b36df5f80a2005b34610d14575f366003190112610d14576002546040516001600160a01b039091168152602090f35b34610d14576040366003190112610d14576119a3611ba4565b336001600160a01b038216036119c1576119bf90600435612080565b005b63334bd91960e11b5f5260045ffd5b34610d14576040366003190112610d14576119bf6004356119ef611ba4565b90611a086105c1825f525f602052600160405f20015490565b611ed6565b34610d14576020366003190112610d14576020611a376004355f525f602052600160405f20015490565b604051908152f35b34610d14575f366003190112610d14576004546040516001600160a01b039091168152602090f35b34610d14575f366003190112610d14576020601054604051908152f35b34610d14575f366003190112610d14576020600c54604051908152f35b34610d14576020366003190112610d1457611aba611b8e565b611ac2611d2a565b5f5160206123385f395f51905f525f9081526020527ff11ed99ef1eb7fdaaafd786162d5e36830f2a0e1abc5d101d5a5d2cde3da8bb254611b0290611d73565b611b0b81611dab565b506001600160a01b03167f0fcfc8d72d308a68b4d24573172c3fc2a526bc8ffd9bcc7f099778ff8c4fd9c35f80a2005b34610d14576020366003190112610d14576004359063ffffffff60e01b8216809203610d1457602091637965db0b60e01b8114908115611b7d575b5015158152f35b6301ffc9a760e01b14905083611b76565b600435906001600160a01b0382168203610d1457565b602435906001600160a01b0382168203610d1457565b606435906001600160a01b0382168203610d1457565b15611bd757565b60405162461bcd60e51b815260206004820152601560248201527443697263756974427265616b6572206572726f722160581b6044820152606490fd5b90601f8019910116810190811067ffffffffffffffff821117611c3657604052565b634e487b7160e01b5f52604160045260245ffd5b15611c5157565b60405162461bcd60e51b815260206004820152601760248201527f496e76616c6964204f726967696e616c204f776e6572210000000000000000006044820152606490fd5b9190826040910312610d14576020825192015190565b15611cb357565b60405162461bcd60e51b815260206004820152602760248201527f5374617274696e672050726963652073686f756c64206265206c6172676572206044820152667468616e20302160c81b6064820152608490fd5b5f198114611d165760010190565b634e487b7160e01b5f52601160045260245ffd5b335f9081525f5160206123585f395f51905f52602052604090205460ff1615611d4f57565b63e2517d3f60e01b5f52336004525f5160206123b85f395f51905f5260245260445ffd5b5f8181526020818152604080832033845290915290205460ff1615611d955750565b63e2517d3f60e01b5f523360045260245260445ffd5b6001600160a01b0381165f9081525f5160206123985f395f51905f52602052604090205460ff16611e3e576001600160a01b03165f8181525f5160206123985f395f51905f5260205260408120805460ff191660011790553391905f5160206123385f395f51905f52907f2f8788117e7eff1d82e926ec794901d17c78024a50270940304540a733656f0d9080a4600190565b505f90565b6001600160a01b0381165f9081525f5160206123585f395f51905f52602052604090205460ff16611e3e576001600160a01b03165f8181525f5160206123585f395f51905f5260205260408120805460ff191660011790553391905f5160206123b85f395f51905f52907f2f8788117e7eff1d82e926ec794901d17c78024a50270940304540a733656f0d9080a4600190565b5f818152602081815260408083206001600160a01b038616845290915290205460ff16611f58575f818152602081815260408083206001600160a01b0395909516808452949091528120805460ff19166001179055339291907f2f8788117e7eff1d82e926ec794901d17c78024a50270940304540a733656f0d9080a4600190565b50505f90565b6001600160a01b0381165f9081525f5160206123985f395f51905f52602052604090205460ff1615611e3e576001600160a01b03165f8181525f5160206123985f395f51905f5260205260408120805460ff191690553391905f5160206123385f395f51905f52907ff6391f5c32d9c69d2a47ea670b442974b53935d1edc7fd64eb21e047a839171b9080a4600190565b6001600160a01b0381165f9081525f5160206123585f395f51905f52602052604090205460ff1615611e3e576001600160a01b03165f8181525f5160206123585f395f51905f5260205260408120805460ff191690553391905f5160206123b85f395f51905f52907ff6391f5c32d9c69d2a47ea670b442974b53935d1edc7fd64eb21e047a839171b9080a4600190565b5f818152602081815260408083206001600160a01b038616845290915290205460ff1615611f58575f818152602081815260408083206001600160a01b0395909516808452949091528120805460ff19169055339291907ff6391f5c32d9c69d2a47ea670b442974b53935d1edc7fd64eb21e047a839171b9080a4600190565b600260015414612111576002600155565b633ee5aeb560e01b5f5260045ffd5b6001600160601b0360018060a01b0360055416911691602061214284426122c2565b60446040518095819363487a239560e01b835286600484015260248301525afa918215610d09575f926121a1575b5061217c8293426122c2565b6007541091821561218c57505091565b61219a9250610d5f906122e3565b6008541191565b9091506020813d6020116121cd575b816121bd60209383611c14565b81010312610d145751905f612170565b3d91506121b0565b805f52600d60205260405f2060ff198154169055600e548015611d16577f25cbe9f0164be4cf740d90169f6bd80426fa677319b2179cec6fc154733b3bce916020915f1901600e55805f52600f82525f6007604082208281558260018201558260028201558260038201558260048201558260058201558260068201550155604051908152a1565b8115612267570490565b634e487b7160e01b5f52601260045260245ffd5b5f91801591821561229c575b505015610d1457670de0b6b3a7640000900490565b80820293509150811582840482141715611d16576122ba908361225d565b145f80612287565b908103908111611d165790565b9190820191828111611d16578210610d1457565b90670de0b6b3a7640000820291808304670de0b6b3a76400001481151715611d1657670de0b6b3a7640000830403610d145756fece9745511e6b32283e684acf17f26ee2c5d221bf65c95e61c3d6fcfa446462d0843c3a00fa95510a35f425371231fd3fe4642e719cb4595160763d6d02594b507d7ffb7a348e1c6a02869081a26547b49160dd3df72d1d75a570eb9b698292ec9b900726daef362ccb7ef4037118922e973973109c4d10b5c19277bddd59e048f11ed99ef1eb7fdaaafd786162d5e36830f2a0e1abc5d101d5a5d2cde3da8bb1a49807205ce4d355092ef5a8a18f56e8913cf4a201fbe287825b095693c21775a2646970667358221220ae67a4a14810f4a0f04593ab7dceacb1f8b21d15b45e982aa143e94a82de202964736f6c634300081c00332f8788117e7eff1d82e926ec794901d17c78024a50270940304540a733656f0d7d7ffb7a348e1c6a02869081a26547b49160dd3df72d1d75a570eb9b698292ecad3228b676f7d3cd4284a5443f17f1962b36e491b30a40b2405849e597ba5fb5",
  "linkReferences": {},
  "deployedLinkReferences": {},
  "immutableReferences": {},
  "inputSourceName": "project/contracts/auctions/AuctionManager.sol",
  "buildInfoId": "solc-0_8_28-75ca4b8246f5052cd3ff6fc2d01d440ed54c7a36"
}