{
  "_format": "hh3-artifact-1",
  "contractName": "CustodianFixed",
  "sourceName": "contracts/CustodianFixed.sol",
  "abi": [
    {
      "inputs": [
        {
          "internalType": "address",
          "name": "_underlyingTokenAddr",
          "type": "address"
        },
        {
          "internalType": "address",
          "name": "_stableTokenAddr",
          "type": "address"
        },
        {
          "internalType": "address",
          "name": "_leverageTokenAddr",
          "type": "address"
        }
      ],
      "stateMutability": "nonpayable",
      "type": "constructor"
    },
    {
      "inputs": [],
      "name": "AccessControlBadConfirmation",
      "type": "error"
    },
    {
      "inputs": [
        {
          "internalType": "address",
          "name": "account",
          "type": "address"
        },
        {
          "internalType": "bytes32",
          "name": "neededRole",
          "type": "bytes32"
        }
      ],
      "name": "AccessControlUnauthorizedAccount",
      "type": "error"
    },
    {
      "inputs": [
        {
          "internalType": "uint256",
          "name": "allowance",
          "type": "uint256"
        },
        {
          "internalType": "uint256",
          "name": "required",
          "type": "uint256"
        }
      ],
      "name": "InsufficientAllowance",
      "type": "error"
    },
    {
      "inputs": [
        {
          "internalType": "uint256",
          "name": "balance",
          "type": "uint256"
        },
        {
          "internalType": "uint256",
          "name": "required",
          "type": "uint256"
        }
      ],
      "name": "InsufficientBalance",
      "type": "error"
    },
    {
      "inputs": [
        {
          "internalType": "address",
          "name": "owner",
          "type": "address"
        }
      ],
      "name": "OwnableInvalidOwner",
      "type": "error"
    },
    {
      "inputs": [
        {
          "internalType": "address",
          "name": "account",
          "type": "address"
        }
      ],
      "name": "OwnableUnauthorizedAccount",
      "type": "error"
    },
    {
      "inputs": [],
      "name": "ReentrancyGuardReentrantCall",
      "type": "error"
    },
    {
      "anonymous": false,
      "inputs": [
        {
          "indexed": true,
          "internalType": "uint256",
          "name": "priceInWei",
          "type": "uint256"
        },
        {
          "indexed": true,
          "internalType": "uint256",
          "name": "timeInSecond",
          "type": "uint256"
        }
      ],
      "name": "AcceptPrice",
      "type": "event"
    },
    {
      "anonymous": false,
      "inputs": [
        {
          "indexed": true,
          "internalType": "bytes32",
          "name": "parameter",
          "type": "bytes32"
        },
        {
          "indexed": false,
          "internalType": "address",
          "name": "addr",
          "type": "address"
        }
      ],
      "name": "AddressChanged",
      "type": "event"
    },
    {
      "anonymous": false,
      "inputs": [
        {
          "indexed": true,
          "internalType": "address",
          "name": "user",
          "type": "address"
        }
      ],
      "name": "AdminAccessGranted",
      "type": "event"
    },
    {
      "anonymous": false,
      "inputs": [
        {
          "indexed": true,
          "internalType": "address",
          "name": "user",
          "type": "address"
        }
      ],
      "name": "AdminAccessRevoked",
      "type": "event"
    },
    {
      "anonymous": false,
      "inputs": [
        {
          "indexed": true,
          "internalType": "address",
          "name": "user",
          "type": "address"
        }
      ],
      "name": "AuctionAccessGranted",
      "type": "event"
    },
    {
      "anonymous": false,
      "inputs": [
        {
          "indexed": true,
          "internalType": "address",
          "name": "user",
          "type": "address"
        }
      ],
      "name": "AuctionAccessRevoked",
      "type": "event"
    },
    {
      "anonymous": false,
      "inputs": [
        {
          "indexed": true,
          "internalType": "address",
          "name": "user",
          "type": "address"
        },
        {
          "indexed": false,
          "internalType": "uint256",
          "name": "tokenId",
          "type": "uint256"
        },
        {
          "indexed": false,
          "internalType": "uint256",
          "name": "sAmountInWei",
          "type": "uint256"
        },
        {
          "indexed": false,
          "internalType": "uint256",
          "name": "lAmountInWei",
          "type": "uint256"
        },
        {
          "indexed": false,
          "internalType": "uint256",
          "name": "underlyingAmountInWei",
          "type": "uint256"
        }
      ],
      "name": "Burn",
      "type": "event"
    },
    {
      "anonymous": false,
      "inputs": [
        {
          "indexed": true,
          "internalType": "address",
          "name": "user",
          "type": "address"
        },
        {
          "indexed": false,
          "internalType": "uint256",
          "name": "tokenId",
          "type": "uint256"
        },
        {
          "indexed": false,
          "internalType": "uint256",
          "name": "balance",
          "type": "uint256"
        }
      ],
      "name": "BurnLeverageTokenInLiquidation",
      "type": "event"
    },
    {
      "anonymous": false,
      "inputs": [
        {
          "indexed": true,
          "internalType": "address",
          "name": "user",
          "type": "address"
        },
        {
          "indexed": false,
          "internalType": "uint256",
          "name": "tokenID",
          "type": "uint256"
        },
        {
          "indexed": false,
          "internalType": "uint256",
          "name": "stableAmount",
          "type": "uint256"
        }
      ],
      "name": "BurnStableTokenInLiquidation",
      "type": "event"
    },
    {
      "anonymous": false,
      "inputs": [
        {
          "indexed": true,
          "internalType": "address",
          "name": "user",
          "type": "address"
        },
        {
          "indexed": true,
          "internalType": "uint256",
          "name": "tokenId",
          "type": "uint256"
        },
        {
          "indexed": false,
          "internalType": "uint256",
          "name": "underlyingAmountInWei",
          "type": "uint256"
        },
        {
          "indexed": false,
          "internalType": "uint256",
          "name": "leverageLevel",
          "type": "uint256"
        },
        {
          "indexed": false,
          "internalType": "uint256",
          "name": "sAmount",
          "type": "uint256"
        },
        {
          "indexed": false,
          "internalType": "uint256",
          "name": "lAmount",
          "type": "uint256"
        }
      ],
      "name": "DynamicTokenMint",
      "type": "event"
    },
    {
      "anonymous": false,
      "inputs": [
        {
          "indexed": true,
          "internalType": "address",
          "name": "oldCollector",
          "type": "address"
        },
        {
          "indexed": true,
          "internalType": "address",
          "name": "newCollector",
          "type": "address"
        }
      ],
      "name": "FeeCollectorUpdated",
      "type": "event"
    },
    {
      "anonymous": false,
      "inputs": [
        {
          "indexed": true,
          "internalType": "address",
          "name": "oldManager",
          "type": "address"
        },
        {
          "indexed": true,
          "internalType": "address",
          "name": "newManager",
          "type": "address"
        }
      ],
      "name": "InterestManagerUpdated",
      "type": "event"
    },
    {
      "anonymous": false,
      "inputs": [
        {
          "indexed": false,
          "internalType": "uint256",
          "name": "interest",
          "type": "uint256"
        }
      ],
      "name": "InterestPaidInAdjustment",
      "type": "event"
    },
    {
      "anonymous": false,
      "inputs": [
        {
          "indexed": true,
          "internalType": "address",
          "name": "user",
          "type": "address"
        }
      ],
      "name": "LiquidationAccessGranted",
      "type": "event"
    },
    {
      "anonymous": false,
      "inputs": [
        {
          "indexed": true,
          "internalType": "address",
          "name": "user",
          "type": "address"
        }
      ],
      "name": "LiquidationAccessRevoked",
      "type": "event"
    },
    {
      "anonymous": false,
      "inputs": [
        {
          "indexed": true,
          "internalType": "address",
          "name": "user",
          "type": "address"
        },
        {
          "indexed": false,
          "internalType": "uint256",
          "name": "underlyingAmountInWei",
          "type": "uint256"
        },
        {
          "indexed": false,
          "internalType": "uint256",
          "name": "leverageLevel",
          "type": "uint256"
        },
        {
          "indexed": false,
          "internalType": "uint256",
          "name": "mintPriceInWei",
          "type": "uint256"
        },
        {
          "indexed": false,
          "internalType": "uint256",
          "name": "sAmountInWei",
          "type": "uint256"
        },
        {
          "indexed": false,
          "internalType": "uint256",
          "name": "lAmountInWei",
          "type": "uint256"
        }
      ],
      "name": "Mint",
      "type": "event"
    },
    {
      "anonymous": false,
      "inputs": [
        {
          "indexed": true,
          "internalType": "address",
          "name": "previousOwner",
          "type": "address"
        },
        {
          "indexed": true,
          "internalType": "address",
          "name": "newOwner",
          "type": "address"
        }
      ],
      "name": "OwnershipTransferred",
      "type": "event"
    },
    {
      "anonymous": false,
      "inputs": [
        {
          "indexed": true,
          "internalType": "address",
          "name": "kpr",
          "type": "address"
        },
        {
          "indexed": false,
          "internalType": "uint256",
          "name": "amount",
          "type": "uint256"
        }
      ],
      "name": "ReceiveStableInAuction",
      "type": "event"
    },
    {
      "anonymous": false,
      "inputs": [],
      "name": "ResetAccounting",
      "type": "event"
    },
    {
      "anonymous": false,
      "inputs": [
        {
          "indexed": true,
          "internalType": "address",
          "name": "kpr",
          "type": "address"
        },
        {
          "indexed": false,
          "internalType": "uint256",
          "name": "amount",
          "type": "uint256"
        }
      ],
      "name": "RewardKpr",
      "type": "event"
    },
    {
      "anonymous": false,
      "inputs": [
        {
          "indexed": true,
          "internalType": "bytes32",
          "name": "role",
          "type": "bytes32"
        },
        {
          "indexed": true,
          "internalType": "bytes32",
          "name": "previousAdminRole",
          "type": "bytes32"
        },
        {
          "indexed": true,
          "internalType": "bytes32",
          "name": "newAdminRole",
          "type": "bytes32"
        }
      ],
      "name": "RoleAdminChanged",
      "type": "event"
    },
    {
      "anonymous": false,
      "inputs": [
        {
          "indexed": true,
          "internalType": "bytes32",
          "name": "role",
          "type": "bytes32"
        },
        {
          "indexed": true,
          "internalType": "address",
          "name": "account",
          "type": "address"
        },
        {
          "indexed": true,
          "internalType": "address",
          "name": "sender",
          "type": "address"
        }
      ],
      "name": "RoleGranted",
      "type": "event"
    },
    {
      "anonymous": false,
      "inputs": [
        {
          "indexed": true,
          "internalType": "bytes32",
          "name": "role",
          "type": "bytes32"
        },
        {
          "indexed": true,
          "internalType": "address",
          "name": "account",
          "type": "address"
        },
        {
          "indexed": true,
          "internalType": "address",
          "name": "sender",
          "type": "address"
        }
      ],
      "name": "RoleRevoked",
      "type": "event"
    },
    {
      "anonymous": false,
      "inputs": [
        {
          "indexed": true,
          "internalType": "address",
          "name": "kpr",
          "type": "address"
        },
        {
          "indexed": false,
          "internalType": "uint256",
          "name": "amount",
          "type": "uint256"
        }
      ],
      "name": "SellUnderlyingInAuction",
      "type": "event"
    },
    {
      "anonymous": false,
      "inputs": [],
      "name": "StartTrading",
      "type": "event"
    },
    {
      "anonymous": false,
      "inputs": [
        {
          "indexed": true,
          "internalType": "address",
          "name": "user",
          "type": "address"
        },
        {
          "indexed": true,
          "internalType": "uint256",
          "name": "tokenId",
          "type": "uint256"
        },
        {
          "indexed": false,
          "internalType": "uint256",
          "name": "underlyingAmountInWei",
          "type": "uint256"
        },
        {
          "indexed": false,
          "internalType": "uint256",
          "name": "leverageLevel",
          "type": "uint256"
        },
        {
          "indexed": false,
          "internalType": "uint256",
          "name": "sAmount",
          "type": "uint256"
        },
        {
          "indexed": false,
          "internalType": "uint256",
          "name": "lAmount",
          "type": "uint256"
        }
      ],
      "name": "StaticTokenMint",
      "type": "event"
    },
    {
      "anonymous": false,
      "inputs": [
        {
          "indexed": true,
          "internalType": "address",
          "name": "interestManager",
          "type": "address"
        },
        {
          "indexed": true,
          "internalType": "address",
          "name": "priceFeed",
          "type": "address"
        },
        {
          "indexed": true,
          "internalType": "address",
          "name": "feeCollector",
          "type": "address"
        }
      ],
      "name": "SystemInitialized",
      "type": "event"
    },
    {
      "anonymous": false,
      "inputs": [
        {
          "indexed": true,
          "internalType": "address",
          "name": "user",
          "type": "address"
        },
        {
          "indexed": false,
          "internalType": "uint256",
          "name": "amountToUser",
          "type": "uint256"
        },
        {
          "indexed": false,
          "internalType": "uint256",
          "name": "penalty",
          "type": "uint256"
        }
      ],
      "name": "WithdrawAfterLiquidation",
      "type": "event"
    },
    {
      "inputs": [],
      "name": "ADMIN_ROLE",
      "outputs": [
        {
          "internalType": "bytes32",
          "name": "",
          "type": "bytes32"
        }
      ],
      "stateMutability": "view",
      "type": "function"
    },
    {
      "inputs": [],
      "name": "AUCTION_ROLE",
      "outputs": [
        {
          "internalType": "bytes32",
          "name": "",
          "type": "bytes32"
        }
      ],
      "stateMutability": "view",
      "type": "function"
    },
    {
      "inputs": [],
      "name": "DEFAULT_ADMIN_ROLE",
      "outputs": [
        {
          "internalType": "bytes32",
          "name": "",
          "type": "bytes32"
        }
      ],
      "stateMutability": "view",
      "type": "function"
    },
    {
      "inputs": [],
      "name": "LIQUIDATION_ROLE",
      "outputs": [
        {
          "internalType": "bytes32",
          "name": "",
          "type": "bytes32"
        }
      ],
      "stateMutability": "view",
      "type": "function"
    },
    {
      "inputs": [],
      "name": "MAX_PRICE_AGE",
      "outputs": [
        {
          "internalType": "uint256",
          "name": "",
          "type": "uint256"
        }
      ],
      "stateMutability": "view",
      "type": "function"
    },
    {
      "inputs": [],
      "name": "PRICE_PRECISION",
      "outputs": [
        {
          "internalType": "uint256",
          "name": "",
          "type": "uint256"
        }
      ],
      "stateMutability": "view",
      "type": "function"
    },
    {
      "inputs": [],
      "name": "accumulatedPenaltyInStable",
      "outputs": [
        {
          "internalType": "uint256",
          "name": "",
          "type": "uint256"
        }
      ],
      "stateMutability": "view",
      "type": "function"
    },
    {
      "inputs": [],
      "name": "accumulatedReceivedInAuction",
      "outputs": [
        {
          "internalType": "uint256",
          "name": "",
          "type": "uint256"
        }
      ],
      "stateMutability": "view",
      "type": "function"
    },
    {
      "inputs": [],
      "name": "accumulatedRewardInStable",
      "outputs": [
        {
          "internalType": "uint256",
          "name": "",
          "type": "uint256"
        }
      ],
      "stateMutability": "view",
      "type": "function"
    },
    {
      "inputs": [],
      "name": "accumulatedUnderlyingSoldInAuction",
      "outputs": [
        {
          "internalType": "uint256",
          "name": "",
          "type": "uint256"
        }
      ],
      "stateMutability": "view",
      "type": "function"
    },
    {
      "inputs": [
        {
          "internalType": "address",
          "name": "user",
          "type": "address"
        },
        {
          "internalType": "uint256",
          "name": "underlyingAmountInWei",
          "type": "uint256"
        },
        {
          "internalType": "uint256",
          "name": "currentPriceInWei",
          "type": "uint256"
        },
        {
          "internalType": "uint256",
          "name": "fromTokenId",
          "type": "uint256"
        },
        {
          "internalType": "uint256",
          "name": "toTokenId",
          "type": "uint256"
        },
        {
          "internalType": "uint256",
          "name": "lAmountPercentage",
          "type": "uint256"
        },
        {
          "internalType": "bool",
          "name": "isStatic",
          "type": "bool"
        }
      ],
      "name": "adjustTokenNetValue",
      "outputs": [
        {
          "internalType": "bool",
          "name": "success",
          "type": "bool"
        }
      ],
      "stateMutability": "nonpayable",
      "type": "function"
    },
    {
      "inputs": [],
      "name": "auctionManager",
      "outputs": [
        {
          "internalType": "contract DuchAuction",
          "name": "",
          "type": "address"
        }
      ],
      "stateMutability": "view",
      "type": "function"
    },
    {
      "inputs": [
        {
          "internalType": "address",
          "name": "underlyingTokenTo",
          "type": "address"
        },
        {
          "internalType": "address",
          "name": "StokenFrom",
          "type": "address"
        },
        {
          "internalType": "address",
          "name": "LtokenFrom",
          "type": "address"
        },
        {
          "internalType": "uint256",
          "name": "leverageTokenId",
          "type": "uint256"
        },
        {
          "internalType": "uint256",
          "name": "lAmountPercentage",
          "type": "uint256"
        }
      ],
      "name": "burn",
      "outputs": [
        {
          "internalType": "uint256",
          "name": "underlyingAmountRedeemedInWei",
          "type": "uint256"
        },
        {
          "internalType": "uint256",
          "name": "stableTokenBurnedInWei",
          "type": "uint256"
        },
        {
          "internalType": "uint256",
          "name": "leverageTokenBurnedInWei",
          "type": "uint256"
        }
      ],
      "stateMutability": "nonpayable",
      "type": "function"
    },
    {
      "inputs": [
        {
          "internalType": "address",
          "name": "user",
          "type": "address"
        },
        {
          "internalType": "uint256",
          "name": "tokenId",
          "type": "uint256"
        },
        {
          "internalType": "uint256",
          "name": "balance",
          "type": "uint256"
        },
        {
          "internalType": "uint256",
          "name": "underlyingAmountInWei",
          "type": "uint256"
        }
      ],
      "name": "burnToken",
      "outputs": [],
      "stateMutability": "nonpayable",
      "type": "function"
    },
    {
      "inputs": [],
      "name": "feeCollector",
      "outputs": [
        {
          "internalType": "address",
          "name": "",
          "type": "address"
        }
      ],
      "stateMutability": "view",
      "type": "function"
    },
    {
      "inputs": [
        {
          "internalType": "enum LeverageType",
          "name": "leverage",
          "type": "uint8"
        },
        {
          "internalType": "uint256",
          "name": "mintPriceInWei",
          "type": "uint256"
        }
      ],
      "name": "findOrCreateToken",
      "outputs": [
        {
          "internalType": "uint256",
          "name": "tokenId",
          "type": "uint256"
        },
        {
          "internalType": "bool",
          "name": "isStatic",
          "type": "bool"
        }
      ],
      "stateMutability": "nonpayable",
      "type": "function"
    },
    {
      "inputs": [],
      "name": "getAccumulatedPenaltyInStable",
      "outputs": [
        {
          "internalType": "uint256",
          "name": "",
          "type": "uint256"
        }
      ],
      "stateMutability": "view",
      "type": "function"
    },
    {
      "inputs": [],
      "name": "getAccumulatedRewardInStable",
      "outputs": [
        {
          "internalType": "uint256",
          "name": "",
          "type": "uint256"
        }
      ],
      "stateMutability": "view",
      "type": "function"
    },
    {
      "inputs": [
        {
          "internalType": "address",
          "name": "user",
          "type": "address"
        }
      ],
      "name": "getAllLeverageTokenInfo",
      "outputs": [
        {
          "internalType": "uint256[]",
          "name": "tokenIds",
          "type": "uint256[]"
        },
        {
          "internalType": "uint256[]",
          "name": "balancesInWei",
          "type": "uint256[]"
        },
        {
          "internalType": "enum LeverageType[]",
          "name": "leverages",
          "type": "uint8[]"
        },
        {
          "internalType": "uint256[]",
          "name": "mintPricesInWei",
          "type": "uint256[]"
        },
        {
          "internalType": "uint256[]",
          "name": "accuredInterestsInWei",
          "type": "uint256[]"
        }
      ],
      "stateMutability": "view",
      "type": "function"
    },
    {
      "inputs": [],
      "name": "getLatestPrice",
      "outputs": [
        {
          "internalType": "uint256",
          "name": "priceInWei",
          "type": "uint256"
        },
        {
          "internalType": "uint256",
          "name": "timeInSecond",
          "type": "uint256"
        }
      ],
      "stateMutability": "nonpayable",
      "type": "function"
    },
    {
      "inputs": [],
      "name": "getLatestPriceView",
      "outputs": [
        {
          "internalType": "uint256",
          "name": "priceInWei",
          "type": "uint256"
        },
        {
          "internalType": "uint256",
          "name": "timeInSecond",
          "type": "uint256"
        },
        {
          "internalType": "bool",
          "name": "isValid",
          "type": "bool"
        }
      ],
      "stateMutability": "view",
      "type": "function"
    },
    {
      "inputs": [],
      "name": "getProjectStats",
      "outputs": [
        {
          "internalType": "uint256",
          "name": "totalStableTokenSupply",
          "type": "uint256"
        },
        {
          "internalType": "uint256",
          "name": "totalLeverageTokenSupply",
          "type": "uint256"
        },
        {
          "internalType": "uint256",
          "name": "totalUnderlyingLocked",
          "type": "uint256"
        }
      ],
      "stateMutability": "view",
      "type": "function"
    },
    {
      "inputs": [
        {
          "internalType": "bytes32",
          "name": "role",
          "type": "bytes32"
        }
      ],
      "name": "getRoleAdmin",
      "outputs": [
        {
          "internalType": "bytes32",
          "name": "",
          "type": "bytes32"
        }
      ],
      "stateMutability": "view",
      "type": "function"
    },
    {
      "inputs": [
        {
          "internalType": "address",
          "name": "user",
          "type": "address"
        },
        {
          "internalType": "uint256",
          "name": "tokenId",
          "type": "uint256"
        }
      ],
      "name": "getSingleLeverageTokenInfo",
      "outputs": [
        {
          "internalType": "uint256",
          "name": "balance",
          "type": "uint256"
        },
        {
          "internalType": "enum LeverageType",
          "name": "leverage",
          "type": "uint8"
        },
        {
          "internalType": "uint256",
          "name": "mintPrice",
          "type": "uint256"
        },
        {
          "internalType": "string",
          "name": "tokenName",
          "type": "string"
        },
        {
          "internalType": "bool",
          "name": "isStatic",
          "type": "bool"
        },
        {
          "internalType": "uint256",
          "name": "accruedInterest",
          "type": "uint256"
        },
        {
          "internalType": "uint256",
          "name": "creationTime",
          "type": "uint256"
        }
      ],
      "stateMutability": "view",
      "type": "function"
    },
    {
      "inputs": [
        {
          "internalType": "address",
          "name": "user",
          "type": "address"
        },
        {
          "internalType": "uint256",
          "name": "tokenId",
          "type": "uint256"
        },
        {
          "internalType": "uint256",
          "name": "currentPriceInWei",
          "type": "uint256"
        }
      ],
      "name": "getSingleLeverageTokenNav",
      "outputs": [
        {
          "internalType": "uint256",
          "name": "balance",
          "type": "uint256"
        },
        {
          "internalType": "uint256",
          "name": "grossNavInWei",
          "type": "uint256"
        },
        {
          "internalType": "uint256",
          "name": "netNavInWei",
          "type": "uint256"
        },
        {
          "internalType": "uint256",
          "name": "totalValueInWei",
          "type": "uint256"
        },
        {
          "internalType": "uint256",
          "name": "totalNetValueInWei",
          "type": "uint256"
        },
        {
          "internalType": "uint256",
          "name": "accruedInterestInWei",
          "type": "uint256"
        }
      ],
      "stateMutability": "view",
      "type": "function"
    },
    {
      "inputs": [
        {
          "internalType": "address",
          "name": "user",
          "type": "address"
        },
        {
          "internalType": "uint256",
          "name": "tokenId",
          "type": "uint256"
        }
      ],
      "name": "getSingleLeverageTokenNavV2",
      "outputs": [
        {
          "internalType": "uint256",
          "name": "balance",
          "type": "uint256"
        },
        {
          "internalType": "uint256",
          "name": "grossNavInWei",
          "type": "uint256"
        },
        {
          "internalType": "uint256",
          "name": "netNavInWei",
          "type": "uint256"
        },
        {
          "internalType": "uint256",
          "name": "totalValueInWei",
          "type": "uint256"
        },
        {
          "internalType": "uint256",
          "name": "totalNetValueInWei",
          "type": "uint256"
        },
        {
          "internalType": "uint256",
          "name": "accruedInterestInWei",
          "type": "uint256"
        },
        {
          "internalType": "uint256",
          "name": "currentPriceInWei",
          "type": "uint256"
        },
        {
          "internalType": "uint256",
          "name": "priceTimestamp",
          "type": "uint256"
        }
      ],
      "stateMutability": "view",
      "type": "function"
    },
    {
      "inputs": [
        {
          "internalType": "uint256",
          "name": "tokenId",
          "type": "uint256"
        }
      ],
      "name": "getTokenDetails",
      "outputs": [
        {
          "internalType": "enum LeverageType",
          "name": "leverage",
          "type": "uint8"
        },
        {
          "internalType": "uint256",
          "name": "mintPrice",
          "type": "uint256"
        },
        {
          "internalType": "uint256",
          "name": "creationTime",
          "type": "uint256"
        },
        {
          "internalType": "string",
          "name": "tokenName",
          "type": "string"
        },
        {
          "internalType": "bool",
          "name": "isStatic",
          "type": "bool"
        }
      ],
      "stateMutability": "view",
      "type": "function"
    },
    {
      "inputs": [
        {
          "internalType": "address",
          "name": "user",
          "type": "address"
        }
      ],
      "name": "getUserCollateral",
      "outputs": [
        {
          "internalType": "uint256",
          "name": "",
          "type": "uint256"
        }
      ],
      "stateMutability": "view",
      "type": "function"
    },
    {
      "inputs": [
        {
          "internalType": "address",
          "name": "account",
          "type": "address"
        }
      ],
      "name": "grantAdminRole",
      "outputs": [],
      "stateMutability": "nonpayable",
      "type": "function"
    },
    {
      "inputs": [
        {
          "internalType": "address",
          "name": "account",
          "type": "address"
        }
      ],
      "name": "grantAuctionRole",
      "outputs": [],
      "stateMutability": "nonpayable",
      "type": "function"
    },
    {
      "inputs": [
        {
          "internalType": "address",
          "name": "account",
          "type": "address"
        }
      ],
      "name": "grantLiquidationRole",
      "outputs": [],
      "stateMutability": "nonpayable",
      "type": "function"
    },
    {
      "inputs": [
        {
          "internalType": "bytes32",
          "name": "role",
          "type": "bytes32"
        },
        {
          "internalType": "address",
          "name": "account",
          "type": "address"
        }
      ],
      "name": "grantRole",
      "outputs": [],
      "stateMutability": "nonpayable",
      "type": "function"
    },
    {
      "inputs": [
        {
          "internalType": "bytes32",
          "name": "role",
          "type": "bytes32"
        },
        {
          "internalType": "address",
          "name": "account",
          "type": "address"
        }
      ],
      "name": "hasRole",
      "outputs": [
        {
          "internalType": "bool",
          "name": "",
          "type": "bool"
        }
      ],
      "stateMutability": "view",
      "type": "function"
    },
    {
      "inputs": [
        {
          "internalType": "address",
          "name": "_interestManagerAddr",
          "type": "address"
        },
        {
          "internalType": "address",
          "name": "_priceFeedAddr",
          "type": "address"
        },
        {
          "internalType": "address",
          "name": "_feeCollectorAddr",
          "type": "address"
        }
      ],
      "name": "initializeSystem",
      "outputs": [],
      "stateMutability": "nonpayable",
      "type": "function"
    },
    {
      "inputs": [],
      "name": "interestManager",
      "outputs": [
        {
          "internalType": "contract InterestManager",
          "name": "",
          "type": "address"
        }
      ],
      "stateMutability": "view",
      "type": "function"
    },
    {
      "inputs": [],
      "name": "leverageToken",
      "outputs": [
        {
          "internalType": "contract MultiLeverageToken",
          "name": "",
          "type": "address"
        }
      ],
      "stateMutability": "view",
      "type": "function"
    },
    {
      "inputs": [],
      "name": "liquidationManager",
      "outputs": [
        {
          "internalType": "contract Liquidation",
          "name": "",
          "type": "address"
        }
      ],
      "stateMutability": "view",
      "type": "function"
    },
    {
      "inputs": [
        {
          "internalType": "uint256",
          "name": "underlyingAmountInWei",
          "type": "uint256"
        },
        {
          "internalType": "uint256",
          "name": "mintPriceInWei",
          "type": "uint256"
        },
        {
          "internalType": "enum LeverageType",
          "name": "leverageLevel",
          "type": "uint8"
        }
      ],
      "name": "mint",
      "outputs": [
        {
          "internalType": "uint256",
          "name": "sAmountInWei",
          "type": "uint256"
        },
        {
          "internalType": "uint256",
          "name": "lAmountInWei",
          "type": "uint256"
        }
      ],
      "stateMutability": "nonpayable",
      "type": "function"
    },
    {
      "inputs": [],
      "name": "owner",
      "outputs": [
        {
          "internalType": "address",
          "name": "",
          "type": "address"
        }
      ],
      "stateMutability": "view",
      "type": "function"
    },
    {
      "inputs": [
        {
          "internalType": "uint256",
          "name": "leverageTokenId",
          "type": "uint256"
        },
        {
          "internalType": "uint256",
          "name": "lAmountPercentage",
          "type": "uint256"
        },
        {
          "internalType": "address",
          "name": "LtokenFrom",
          "type": "address"
        },
        {
          "internalType": "uint256",
          "name": "currentPriceInWei",
          "type": "uint256"
        }
      ],
      "name": "previewBurn",
      "outputs": [
        {
          "internalType": "uint256",
          "name": "lAmountBurnedInWei",
          "type": "uint256"
        },
        {
          "internalType": "uint256",
          "name": "sAmountNeededInWei",
          "type": "uint256"
        },
        {
          "internalType": "uint256",
          "name": "underlyingAmountInWei",
          "type": "uint256"
        },
        {
          "internalType": "uint256",
          "name": "underlyingAmountToUser",
          "type": "uint256"
        },
        {
          "internalType": "uint256",
          "name": "underlyingAmountToInterestManager",
          "type": "uint256"
        },
        {
          "internalType": "uint256",
          "name": "deductInterestInWei",
          "type": "uint256"
        }
      ],
      "stateMutability": "view",
      "type": "function"
    },
    {
      "inputs": [
        {
          "internalType": "uint256",
          "name": "underlyingAmountInWei",
          "type": "uint256"
        },
        {
          "internalType": "enum LeverageType",
          "name": "leverage",
          "type": "uint8"
        },
        {
          "internalType": "uint256",
          "name": "mintPriceInWei",
          "type": "uint256"
        },
        {
          "internalType": "uint256",
          "name": "currentPriceInWei",
          "type": "uint256"
        }
      ],
      "name": "previewMint",
      "outputs": [
        {
          "internalType": "uint256",
          "name": "sAmountInWei",
          "type": "uint256"
        },
        {
          "internalType": "uint256",
          "name": "lAmountInWei",
          "type": "uint256"
        },
        {
          "internalType": "uint256",
          "name": "grossNavInWei",
          "type": "uint256"
        }
      ],
      "stateMutability": "pure",
      "type": "function"
    },
    {
      "inputs": [],
      "name": "priceFeed",
      "outputs": [
        {
          "internalType": "contract IChainlinkV3",
          "name": "",
          "type": "address"
        }
      ],
      "stateMutability": "view",
      "type": "function"
    },
    {
      "inputs": [],
      "name": "priceFeedDecimals",
      "outputs": [
        {
          "internalType": "uint8",
          "name": "",
          "type": "uint8"
        }
      ],
      "stateMutability": "view",
      "type": "function"
    },
    {
      "inputs": [
        {
          "internalType": "address",
          "name": "kpr",
          "type": "address"
        },
        {
          "internalType": "uint256",
          "name": "stableAmount",
          "type": "uint256"
        }
      ],
      "name": "receiveFromKpr",
      "outputs": [],
      "stateMutability": "nonpayable",
      "type": "function"
    },
    {
      "inputs": [],
      "name": "renounceOwnership",
      "outputs": [],
      "stateMutability": "nonpayable",
      "type": "function"
    },
    {
      "inputs": [
        {
          "internalType": "bytes32",
          "name": "role",
          "type": "bytes32"
        },
        {
          "internalType": "address",
          "name": "callerConfirmation",
          "type": "address"
        }
      ],
      "name": "renounceRole",
      "outputs": [],
      "stateMutability": "nonpayable",
      "type": "function"
    },
    {
      "inputs": [],
      "name": "resetAccounting",
      "outputs": [],
      "stateMutability": "nonpayable",
      "type": "function"
    },
    {
      "inputs": [
        {
          "internalType": "address",
          "name": "account",
          "type": "address"
        }
      ],
      "name": "revokeAdminRole",
      "outputs": [],
      "stateMutability": "nonpayable",
      "type": "function"
    },
    {
      "inputs": [
        {
          "internalType": "address",
          "name": "account",
          "type": "address"
        }
      ],
      "name": "revokeAuctionRole",
      "outputs": [],
      "stateMutability": "nonpayable",
      "type": "function"
    },
    {
      "inputs": [
        {
          "internalType": "address",
          "name": "account",
          "type": "address"
        }
      ],
      "name": "revokeLiquidationRole",
      "outputs": [],
      "stateMutability": "nonpayable",
      "type": "function"
    },
    {
      "inputs": [
        {
          "internalType": "bytes32",
          "name": "role",
          "type": "bytes32"
        },
        {
          "internalType": "address",
          "name": "account",
          "type": "address"
        }
      ],
      "name": "revokeRole",
      "outputs": [],
      "stateMutability": "nonpayable",
      "type": "function"
    },
    {
      "inputs": [
        {
          "internalType": "address",
          "name": "kpr",
          "type": "address"
        },
        {
          "internalType": "uint256",
          "name": "rewardAmount",
          "type": "uint256"
        }
      ],
      "name": "rewardKpr",
      "outputs": [],
      "stateMutability": "nonpayable",
      "type": "function"
    },
    {
      "inputs": [
        {
          "internalType": "bytes32",
          "name": "parameter",
          "type": "bytes32"
        },
        {
          "internalType": "address",
          "name": "addr",
          "type": "address"
        }
      ],
      "name": "setAddress",
      "outputs": [],
      "stateMutability": "nonpayable",
      "type": "function"
    },
    {
      "inputs": [],
      "name": "stableToken",
      "outputs": [
        {
          "internalType": "contract StableToken",
          "name": "",
          "type": "address"
        }
      ],
      "stateMutability": "view",
      "type": "function"
    },
    {
      "inputs": [],
      "name": "state",
      "outputs": [
        {
          "internalType": "enum CustodianFixed.State",
          "name": "",
          "type": "uint8"
        }
      ],
      "stateMutability": "view",
      "type": "function"
    },
    {
      "inputs": [
        {
          "internalType": "bytes4",
          "name": "interfaceId",
          "type": "bytes4"
        }
      ],
      "name": "supportsInterface",
      "outputs": [
        {
          "internalType": "bool",
          "name": "",
          "type": "bool"
        }
      ],
      "stateMutability": "view",
      "type": "function"
    },
    {
      "inputs": [],
      "name": "totalSupplyL",
      "outputs": [
        {
          "internalType": "uint256",
          "name": "",
          "type": "uint256"
        }
      ],
      "stateMutability": "view",
      "type": "function"
    },
    {
      "inputs": [],
      "name": "totalSupplyS",
      "outputs": [
        {
          "internalType": "uint256",
          "name": "",
          "type": "uint256"
        }
      ],
      "stateMutability": "view",
      "type": "function"
    },
    {
      "inputs": [
        {
          "internalType": "address",
          "name": "newOwner",
          "type": "address"
        }
      ],
      "name": "transferOwnership",
      "outputs": [],
      "stateMutability": "nonpayable",
      "type": "function"
    },
    {
      "inputs": [
        {
          "internalType": "address",
          "name": "kpr",
          "type": "address"
        },
        {
          "internalType": "uint256",
          "name": "underlyingAmount",
          "type": "uint256"
        }
      ],
      "name": "transferToKpr",
      "outputs": [],
      "stateMutability": "nonpayable",
      "type": "function"
    },
    {
      "inputs": [],
      "name": "underlyingToken",
      "outputs": [
        {
          "internalType": "contract IERC20",
          "name": "",
          "type": "address"
        }
      ],
      "stateMutability": "view",
      "type": "function"
    },
    {
      "inputs": [],
      "name": "underlyingTokenDecimals",
      "outputs": [
        {
          "internalType": "uint8",
          "name": "",
          "type": "uint8"
        }
      ],
      "stateMutability": "view",
      "type": "function"
    },
    {
      "inputs": [
        {
          "internalType": "address",
          "name": "",
          "type": "address"
        }
      ],
      "name": "userCollateral",
      "outputs": [
        {
          "internalType": "uint256",
          "name": "",
          "type": "uint256"
        }
      ],
      "stateMutability": "view",
      "type": "function"
    },
    {
      "inputs": [
        {
          "internalType": "address",
          "name": "",
          "type": "address"
        },
        {
          "internalType": "uint256",
          "name": "",
          "type": "uint256"
        }
      ],
      "name": "userHasToken",
      "outputs": [
        {
          "internalType": "bool",
          "name": "",
          "type": "bool"
        }
      ],
      "stateMutability": "view",
      "type": "function"
    },
    {
      "inputs": [
        {
          "internalType": "address",
          "name": "",
          "type": "address"
        },
        {
          "internalType": "uint256",
          "name": "",
          "type": "uint256"
        }
      ],
      "name": "userTokenIds",
      "outputs": [
        {
          "internalType": "uint256",
          "name": "",
          "type": "uint256"
        }
      ],
      "stateMutability": "view",
      "type": "function"
    },
    {
      "inputs": [
        {
          "internalType": "address",
          "name": "user",
          "type": "address"
        },
        {
          "internalType": "uint256",
          "name": "tokenID",
          "type": "uint256"
        },
        {
          "internalType": "uint256",
          "name": "amountToUser",
          "type": "uint256"
        },
        {
          "internalType": "uint256",
          "name": "penalty",
          "type": "uint256"
        },
        {
          "internalType": "uint256",
          "name": "stableAmountToBeBurned",
          "type": "uint256"
        }
      ],
      "name": "withdrawAfterLiquidation",
      "outputs": [],
      "stateMutability": "nonpayable",
      "type": "function"
    }
  ],
  "bytecode": "0x6101008060405234610264576060816164b68038038091610020828561035a565b8339810103126102645761003381610391565b9061004c604061004560208401610391565b9201610391565b903315610347575f8054336001600160a01b0319821681178355604051959290916001600160a01b0316907f8be0079c531659141344cd1fd0a4f28419497f9722a3daafe3b4186f6b6457e09080a360016002556005805460ff60b01b191690555f600e819055600f81905560108190556011556001600160a01b031692831561030557506001600160a01b03169081156102c0576001600160a01b031691821561027b57600492602092610100336103a5565b5061010a3361041b565b508260805260a05260c0526040519283809263313ce56760e01b82525afa908115610270575f91610230575b5060e0526005805460ff60a81b19169055604051615fa790816104af82396080518181816104b301528181610c3e0152818161282b0152818161364a015281816138fa0152613c2b015260a051818181611479015281816116a401528181611d56015281816121fc0152818161279a015281816139df0152613d0b015260c0518181816105fe01528181611255015281816117da01528181611aba015281816122530152818161271b01528181612eea015281816133f30152818161348e01528181613c730152818161471f01528181614f290152615123015260e0518181816106d901528181612601015281816135e101526152890152f35b90506020813d602011610268575b8161024b6020938361035a565b81010312610264575160ff81168103610264575f610136565b5f80fd5b3d915061023e565b6040513d5f823e3d90fd5b60405162461bcd60e51b815260206004820152601660248201527f496e76616c6964206c6576657261676520746f6b656e000000000000000000006044820152606490fd5b60405162461bcd60e51b815260206004820152601460248201527f496e76616c696420737461626c6520746f6b656e0000000000000000000000006044820152606490fd5b62461bcd60e51b815260206004820152601860248201527f496e76616c696420756e6465726c79696e6720746f6b656e00000000000000006044820152606490fd5b631e4fbdf760e01b5f525f60045260245ffd5b601f909101601f19168101906001600160401b0382119082101761037d57604052565b634e487b7160e01b5f52604160045260245ffd5b51906001600160a01b038216820361026457565b6001600160a01b0381165f9081525f5160206164765f395f51905f52602052604090205460ff16610416576001600160a01b03165f8181525f5160206164765f395f51905f5260205260408120805460ff191660011790553391905f5160206164565f395f51905f528180a4600190565b505f90565b6001600160a01b0381165f9081525f5160206164965f395f51905f52602052604090205460ff16610416576001600160a01b03165f8181525f5160206164965f395f51905f5260205260408120805460ff191660011790553391907fa49807205ce4d355092ef5a8a18f56e8913cf4a201fbe287825b095693c21775905f5160206164565f395f51905f529080a460019056fe6080806040526004361015610012575f80fd5b5f905f3560e01c90816301ffc9a7146141da5750806305b6cb4f14613b9e5780630ab464f014613b555780631289c447146139a45780631ef3a04c1461397b578063239bc2ff1461395d578063248a9ca3146139295780632495a599146138e45780632a46018c1461387d5780632d6c16611461384b5780632ef91862146134615780632f2ff15d14613422578063355af607146133dd57806336568abe146133985780633ff805351461337a578063430730a314613352578063432ac92f1461329657806350d5041d1461326657806356bcb666146132075780635ad6fb9314612ea4578063671c0cc51461269d5780636c7836531461267f578063715018a6146126255780637284168a146125e7578063741bef1a146125be57806375b238fc1461259657806386f1ea6d146120f05780638d135097146120ca5780638da5cb5b146120a35780638e15f4731461207c57806391d1485414612032578063927317c614611fcb57806392fd7d1614611d1457806394d6468914611a6e57806395082d2514611a4b5780639a19c7b0146119af5780639d7f7e86146119925780639ec176c414611798578063a217fddf1461177c578063a25aa00b14611758578063a33dfedc146116f1578063a3c6c68c146116d3578063a9d75b2b1461168e578063ab4fb0a314611432578063ae0e01251461140a578063b0192f9a146113e1578063b3d44dd8146113c3578063b6f7132f1461139b578063bca537f214611357578063c19d93fb14611314578063c1e0372814611226578063c415b95c146111fd578063c634b78e14611161578063c9d11442146110fa578063ca446dd914610f34578063cc17e15d14610edd578063cee7dc6214610eb7578063d292796f14610e55578063d547741f14610e0d578063dfc9afe314610c03578063e104611d1461044c578063e4fa8a5b146103fc578063eb82a7de146103de578063ee065e11146103b5578063f2fde38b1461032f5763f69f1e4a146102f4575f80fd5b3461032c57602036600319011261032c576020906040906001600160a01b0361031b61422d565b168152600b83522054604051908152f35b80fd5b503461032c57602036600319011261032c5761034961422d565b610351615e2b565b6001600160a01b031680156103a15781546001600160a01b03198116821783556001600160a01b03167f8be0079c531659141344cd1fd0a4f28419497f9722a3daafe3b4186f6b6457e08380a380f35b631e4fbdf760e01b82526004829052602482fd5b503461032c578060031936011261032c576004546040516001600160a01b039091168152602090f35b503461032c578060031936011261032c576020601154604051908152f35b503461032c578060031936011261032c57610415615803565b80600e5580600f5580601055806011557f4268cdd9d22c1a426c377c28698399a7a2184d8b11fb6474e958dc4b0b30291e8180a180f35b503461032c5760e036600319011261032c5761046661422d565b9060243591604435606435916084359260a4359060c43590811515809203610bff5761049061584c565b6040516370a0823160e01b81526001600160a01b038581166004830181905299917f000000000000000000000000000000000000000000000000000000000000000090911690602081602481855afa8015610b495783908b90610bc9575b6104f892506158cf565b604051636eb1769f60e11b81526001600160a01b0387166004820152306024820152602081604481855afa8015610b495783908b90610b93575b61053c9250615e51565b6040516323b872dd60e01b81526001600160a01b0387166004820152306024820152604481018390526020816064818d865af18015610b49578a90610b54575b61058691506143ed565b60048054604051639e35afc960e01b81526001600160a01b0389811693820193909352602481018690529160209183916044918391165afa908115610b49578a91610b15575b506105d96064918761451d565b604051627eeac760e11b81526001600160a01b038981166004830152602482018790527f00000000000000000000000000000000000000000000000000000000000000001697929091049391906020816044818b5afa908115610ad3578c91610ade575b5060649161064a9161451d565b0497863b15610a4357604051637a94c56560e11b81526001600160a01b038916600482015260248101869052604481018a90528b81606481838c5af18015610ad357908c91610abe575b50508015610aac57670de0b6b3a76400008402848104670de0b6b3a76400001485151715610a98576106cb61074892602092614530565b6106d7848211156150a7565b7f00000000000000000000000000000000000000000000000000000000000000009060ff821660128103610a5a5750905080945b6004805460405163a9059cbb60e01b81526001600160a01b03909116918101919091526024810192909252909283919082908f9082906044820190565b03925af1908115610a4f578b91610a02575b506107a3929161076c61079e92614583565b7f658e2155cd869124578e9b77f2881d77875445c8b0c951abc7aec70be84e72e46020604051858152a160085461447b565b614510565b6008556004546001600160a01b031691823b156109fe5760405163c76295b160e01b81526001600160a01b038716600482015260248101919091526044810191909152606481018690529087908290608490829084905af180156109f3579087916109da575b505060010361097157803b1561094957604051634f5ed3b560e01b81526001600160a01b038316600482015260248101859052604481018490529085908290606490829084905af180156109665790859161094d575b50505b6004546001600160a01b031690813b1561094957604051631e67ec1960e31b81526001600160a01b0391909116600482015260248101849052604481019290925283908290606490829084905af1801561093e57908391610925575b50839052600a6020526040822081835260205260ff604083205416156108ea575b602060405160018152f35b82604093835260096020526109018285852061556a565b8252600a60205282822090825260205220600160ff198254161790555f80806108df565b8161092f916143aa565b61093a57815f6108be565b5080fd5b6040513d85823e3d90fd5b8480fd5b81610957916143aa565b61096257835f61085f565b8380fd5b6040513d87823e3d90fd5b803b1561094957604051635b0a931d60e01b81526001600160a01b038316600482015260248101859052604481018490529085908290606490829084905af18015610966579085916109c5575b5050610862565b816109cf916143aa565b61096257835f6109be565b816109e4916143aa565b6109ef57855f610809565b8580fd5b6040513d89823e3d90fd5b8880fd5b90506020813d602011610a47575b81610a1d602093836143aa565b81010312610a43576107a3929161076c610a3961079e936143e0565b925050919261075a565b8a80fd5b3d9150610a10565b6040513d8d823e3d90fd5b60121115610a8357610a76610a71610a7c93614561565b614572565b90614530565b809461070b565b610a92610a71610a7c9361454e565b9061451d565b634e487b7160e01b8c52601160045260248cfd5b509150889161074860208b809461070b565b81610ac8916143aa565b610a43578a5f610694565b6040513d8e823e3d90fd5b90506020813d602011610b0d575b81610af9602093836143aa565b81010312610b095751606461063d565b5f80fd5b3d9150610aec565b90506020813d602011610b41575b81610b30602093836143aa565b81010312610b0957516105d96105cc565b3d9150610b23565b6040513d8c823e3d90fd5b506020813d602011610b8b575b81610b6e602093836143aa565b81010312610b8757610b82610586916143e0565b61057c565b8980fd5b3d9150610b61565b50506020813d602011610bc1575b81610bae602093836143aa565b81010312610b09578261053c9151610532565b3d9150610ba1565b50506020813d602011610bf7575b81610be4602093836143aa565b81010312610b0957826104f891516104ee565b3d9150610bd7565b8680fd5b503461032c57604036600319011261032c57610c1d61422d565b60243590610c296157ba565b6040516370a0823160e01b81523060048201527f00000000000000000000000000000000000000000000000000000000000000006001600160a01b031690602081602481855afa80156109665784918691610dd8575b5010610d945760405163a9059cbb60e01b81526001600160a01b038316600482015260248101849052906020908290604490829088905af1908115610d89578491610d25575b507fb1fd9626a76d2d43227b2b58bc0e4f4fbb3ba2d8dc7d515a58dfb05a7216e7dd91610cf3602092614438565b610cff84600854614510565b600855610d0e8460105461447b565b6010556040519384526001600160a01b031692a280f35b90506020813d602011610d81575b81610d40602093836143aa565b81010312610962577fb1fd9626a76d2d43227b2b58bc0e4f4fbb3ba2d8dc7d515a58dfb05a7216e7dd91610cf3610d786020936143e0565b92505091610cc5565b3d9150610d33565b6040513d86823e3d90fd5b606460405162461bcd60e51b815260206004820152602060248201527f756e6465726c79696e675479706520616d6f756e74206e6f7420656e6f7567686044820152fd5b9150506020813d602011610e05575b81610df4602093836143aa565b81010312610b09578390515f610c7f565b3d9150610de7565b503461032c57604036600319011261032c57610e51600435610e2d614243565b90610e4c610e47825f526001602052600160405f20015490565b615895565b615c67565b5080f35b503461032c57608036600319011261032c57610eb3610e84610e75614259565b606435906024356004356150eb565b604080519687526020870195909552938501929092526060840152608083015260a082015290819060c0820190565b0390f35b503461032c578060031936011261032c57610ed0615803565b6020600e54604051908152f35b503461032c57604036600319011261032c57610ef761422d565b6001600160a01b031681526009602052604081208054602435929083101561032c576020610f2584846142d3565b90549060031b1c604051908152f35b503461032c57604036600319011261032c57600435610f51614243565b610f59615803565b610f616155a3565b713634b8bab4b230ba34b7b726b0b730b3b2b960711b820361101b57600c80546001600160a01b0319166001600160a01b0383169081179091557fce9745511e6b32283e684acf17f26ee2c5d221bf65c95e61c3d6fcfa446462d091602091610fc8615803565b610fd3610e476144d6565b610fdc82615974565b507fce4dc51eb54a1fb30d5642292a758099a420b02c5040b764c25963ee4f8bcef98680a25b6040516001600160a01b039091168152a2600160025580f35b6d30bab1ba34b7b726b0b730b3b2b960911b82036110bc57600d80546001600160a01b0319166001600160a01b0383169081179091557fce9745511e6b32283e684acf17f26ee2c5d221bf65c95e61c3d6fcfa446462d09160209161107e615803565b611089610e4761449c565b611092826158ef565b507f0955f82c07229d6a99f48ddd28fe0036270495ad0976e376cd9fa4f18528fdf58680a2611002565b60405162461bcd60e51b81526020600482015260166024820152752ab73932b1b7b3b734bd32b2103830b930b6b2ba32b960511b6044820152606490fd5b503461032c57602036600319011261032c5761111461422d565b61111c615803565b611127610e4761449c565b61113081615be9565b506001600160a01b03167f680982af7bfb8bdbe6297103b9c7b13afd2eda6ed4fe0e4db5138a05fc68a61c8280a280f35b503461032c57602036600319011261032c5761117b61422d565b611183615803565b5f516020615f325f395f51905f525f5260016020527f50efbde2d46c37e9785f1791697f77e94bb7b701e19f1930a668820722d37695546111c390615895565b6111cc816159f4565b506001600160a01b03167fc36befb96151814c16fe0d20f29a5912794cda96453e57ab00edad0bb21d50fa8280a280f35b503461032c578060031936011261032c576005546040516001600160a01b039091168152602090f35b503461032c57602036600319011261032c5760405163463d31d760e11b815260048035908201529080826024817f00000000000000000000000000000000000000000000000000000000000000006001600160a01b03165afa918215611307576112ac928291838490859286946112d3575b506112c793949550604051968780976142a2565b6020860152604085015260a0606085015260a08401906142af565b90151560808301520390f35b93505050506112f891506112c7923d8091833e6112f081836143aa565b81019061463b565b9394508493929091905f611298565b50604051903d90823e3d90fd5b503461032c578060031936011261032c5760ff60055460a81c1660405190600581101561134357602092508152f35b634e487b7160e01b83526021600452602483fd5b503461032c57604036600319011261032c5760043590600382101561032c57604061138d8361138461584c565b60243590614f15565b825191825215156020820152f35b503461032c57602036600319011261032c576020906040906001600160a01b0361031b61422d565b503461032c578060031936011261032c576020601054604051908152f35b503461032c578060031936011261032c57600d546040516001600160a01b039091168152602090f35b503461032c578060031936011261032c5760206040515f516020615ed25f395f51905f528152f35b503461032c57604036600319011261032c5761144c61422d565b6024356114576157ba565b6040516370a0823160e01b81526001600160a01b0383811660048301819052937f000000000000000000000000000000000000000000000000000000000000000090911691602081602481865afa801561164d5784908790611658575b6114be92506158cf565b604051636eb1769f60e11b81526001600160a01b038216600482015230602482015290602082604481865afa801561164d5784928791611615575b5092829161150c60209461154996615e51565b6040516323b872dd60e01b81526001600160a01b039091166004820152306024820152604481019290925290928391908290889082906064820190565b03925af1908115610d895784916115db575b501561159e576020816115917f7237d63681350abad87252ddbffb36b0c9a1500d7d59cb15bfcad6329c52005d9360115461447b565b601155604051908152a280f35b60405162461bcd60e51b81526020600482015260156024820152741c9958d95a5d99519c9bdb52dc1c8819985a5b1959605a1b6044820152606490fd5b90506020813d60201161160d575b816115f6602093836143aa565b8101031261096257611607906143e0565b5f61155b565b3d91506115e9565b919250506020813d602011611645575b81611632602093836143aa565b81010312610b09575183919060206114f9565b3d9150611625565b6040513d88823e3d90fd5b50506020813d602011611686575b81611673602093836143aa565b81010312610b0957836114be91516114b4565b3d9150611666565b503461032c578060031936011261032c576040517f00000000000000000000000000000000000000000000000000000000000000006001600160a01b03168152602090f35b503461032c578060031936011261032c576020600654604051908152f35b503461032c57602036600319011261032c5761170b61422d565b611713615803565b61171e610e476144d6565b61172781615b6b565b506001600160a01b03167f1c5bb14b08c8da4ac703077e5422f26a6590ab259cc171a1d53cd790c7bc65188280a280f35b503461032c578060031936011261032c57602060ff60055460a01c16604051908152f35b503461032c578060031936011261032c57602090604051908152f35b503461032c57604036600319011261032c576117b261422d565b604051627eeac760e11b81526001600160a01b038281166004830152602480359083018190527f000000000000000000000000000000000000000000000000000000000000000090911693919290602084604481885afa93841561093e57839461195c575b5082602495611827861515614c32565b6040519687809263463d31d760e11b82528560048301525afa92831561191e578095819282948392849761192a575b5060048054604051639e35afc960e01b81526001600160a01b03938416928101929092526024820193909352916020918391168180604481015b03915afa92831561191e57926118e8575b506118d291926118bc604051988998895260208901906142a2565b604087015260e0606087015260e08601906142af565b921515608085015260a084015260c08301520390f35b91506020823d602011611916575b81611903602093836143aa565b81010312610b09576118d29151916118a1565b3d91506118f6565b604051903d90823e3d90fd5b919450955061189097506020945061194c91503d8084833e6112f081836143aa565b9399939791965091949192611856565b9493506020853d60201161198a575b81611978602093836143aa565b81010312610b09579351929382611817565b3d915061196b565b503461032c578060031936011261032c576020604051610e108152f35b503461032c57602036600319011261032c576119c961422d565b6119d1615803565b5f516020615f325f395f51905f525f5260016020527f50efbde2d46c37e9785f1791697f77e94bb7b701e19f1930a668820722d3769554611a1190615895565b611a1a81615aed565b506001600160a01b03167f998b1c8c2c4e47baeddde4d4152dfae31548fb5e6aa5fc2026808fa365a30e7c8280a280f35b503461032c578060031936011261032c576020604051670de0b6b3a76400008152f35b503461032c57606036600319011261032c57611a8861422d565b604435906024358215611cd757604051627eeac760e11b81526001600160a01b038381166004830152602482018390527f00000000000000000000000000000000000000000000000000000000000000001693909285602085604481895afa948515611307578195611c9e575b508495611b06602495961515614c32565b6040519485809263463d31d760e11b82528860048301525afa90811561164d5786938792611c71575b5060048054604051639e35afc960e01b81526001600160a01b0393841692810192909252602482019690965293946020918591168180604481015b03915afa92831561164d578693611c3b575b50611b879293615cd8565b92670de0b6b3a7640000611b9b858561451d565b0490828210611c3057611bae8383614510565b90670de0b6b3a7640000820291808304670de0b6b3a76400001490151715611c1c575090611be084610eb39493614530565b90611beb8382614510565b915b604051968796879260a094919796959260c0850198855260208501526040840152606083015260808201520152565b634e487b7160e01b81526011600452602490fd5b610eb3929181611bed565b92506020833d602011611c69575b81611c56602093836143aa565b81010312610b0957611b87925192611b7c565b3d9150611c49565b611b6a94506020919250611c8e903d808a833e6112f081836143aa565b5050509590959291509493611b2f565b939450506020833d602011611ccf575b81611cbb602093836143aa565b81010312610b095785602493519493611af5565b3d9150611cae565b60405162461bcd60e51b8152602060048201526015602482015274496e76616c69642063757272656e7420707269636560581b6044820152606490fd5b503461032c5760a036600319011261032c57611d2e61422d565b6044356064359160843591611d4161584c565b6040516370a0823160e01b81523060048201527f00000000000000000000000000000000000000000000000000000000000000006001600160a01b031690602081602481855afa9081156109f3578791611f99575b50611da1838661447b565b11611f5557803b156109ef57604051632770a7eb60e21b8152306004820152602481018590528690818160448183875af18015611f4a57611f35575b5050611deb84600654614510565b60065560405163a9059cbb60e01b81526001600160a01b03841660048201526024810183905290602090829060449082908a905af190811561164d578691611efb575b5015611eb657837f4321ab8601720efe0f7eb33654ae9b9ffe7028d0998e241907565d6388de9c51937f8f67561a3452e9bc990a16c76944a6dac35724abbce733d971302d479b85907660409694611e898896600f5461447b565b600f558751602435815260208101939093526001600160a01b0316968792a282519182526020820152a280f35b60405162461bcd60e51b815260206004820152601f60248201527f776974686472617741667465724c69717569646174696f6e206661696c6564006044820152606490fd5b90506020813d602011611f2d575b81611f16602093836143aa565b810103126109ef57611f27906143e0565b5f611e2e565b3d9150611f09565b81611f3f916143aa565b6109ef57855f611ddd565b6040513d84823e3d90fd5b606460405162461bcd60e51b815260206004820152602060248201527f776974686472617741667465724c69717569646174696f6e206661696c65642e6044820152fd5b90506020813d602011611fc3575b81611fb4602093836143aa565b81010312610b0957515f611d96565b3d9150611fa7565b503461032c57602036600319011261032c57611fe561422d565b611fed615803565b611ff8610e476144d6565b61200181615974565b506001600160a01b03167fce4dc51eb54a1fb30d5642292a758099a420b02c5040b764c25963ee4f8bcef98280a280f35b503461032c57604036600319011261032c57604061204e614243565b9160043581526001602052209060018060a01b03165f52602052602060ff60405f2054166040519015158152f35b503461032c578060031936011261032c576040612097614c9d565b82519182526020820152f35b503461032c578060031936011261032c57546040516001600160a01b039091168152602090f35b503461032c578060031936011261032c576120e3615803565b6020600f54604051908152f35b503461032c57606036600319011261032c5761210a61422d565b612112614243565b61211a614259565b90612123615e2b565b6005549260ff8460b01c166125515760ff8460a81c16600581101561253d576124e9576001600160a01b03169081156124a4576001600160a01b031691821561246a576001600160a01b031692831561242d57600480546001600160a01b031990811684178255600380548216861790558216851760055560405163313ce56760e01b815290602090829081875afa90811561164d5786916123f1575b5060ff60a01b60a09190911b166001600160a81b031982168517811760055560405163375b74c360e01b81526020816004816001600160a01b037f0000000000000000000000000000000000000000000000000000000000000000165afa9081156109f35787916123d2575b50306001600160a01b03909116036123765760405163375b74c360e01b81526020816004817f00000000000000000000000000000000000000000000000000000000000000006001600160a01b03165afa9081156109f3578791612347575b50306001600160a01b03909116036122e9576001600160b01b0319909116841717600160a81b1760ff60b01b1916600160b01b176005557f651b3edf80c52447d30bdde5f8741a52d8cca7d06ad067aa3f3e9fcf315d64f48480a480f35b60405162461bcd60e51b815260206004820152603060248201527f4c65766572616765546f6b656e20637573746f6469616e206e6f74207365742060448201526f1d1bc81d1a1a5cc818dbdb9d1c9858dd60821b6064820152608490fd5b612369915060203d60201161236f575b61236181836143aa565b810190614c7e565b5f61228b565b503d612357565b60405162461bcd60e51b815260206004820152602e60248201527f537461626c65546f6b656e20637573746f6469616e206e6f742073657420746f60448201526d081d1a1a5cc818dbdb9d1c9858dd60921b6064820152608490fd5b6123eb915060203d60201161236f5761236181836143aa565b5f61222c565b90506020813d602011612425575b8161240c602093836143aa565b810103126109ef575160ff811681036109ef575f6121c0565b3d91506123ff565b60405162461bcd60e51b815260206004820152601560248201527424b73b30b634b2103332b29031b7b63632b1ba37b960591b6044820152606490fd5b60405162461bcd60e51b8152602060048201526012602482015271125b9d985b1a59081c1c9a58d9481999595960721b6044820152606490fd5b60405162461bcd60e51b815260206004820152601860248201527f496e76616c696420696e746572657374206d616e6167657200000000000000006044820152606490fd5b60405162461bcd60e51b815260206004820152602660248201527f43616e206f6e6c7920696e697469616c697a6520696e20496e63657074696f6e60448201526520737461746560d01b6064820152608490fd5b634e487b7160e01b86526021600452602486fd5b60405162461bcd60e51b815260206004820152601a60248201527f53797374656d20616c726561647920696e697469616c697a65640000000000006044820152606490fd5b503461032c578060031936011261032c5760206040515f516020615f325f395f51905f528152f35b503461032c578060031936011261032c576003546040516001600160a01b039091168152602090f35b503461032c578060031936011261032c57602060405160ff7f0000000000000000000000000000000000000000000000000000000000000000168152f35b503461032c578060031936011261032c5761263e615e2b565b80546001600160a01b03198116825581906001600160a01b03167f8be0079c531659141344cd1fd0a4f28419497f9722a3daafe3b4186f6b6457e08280a380f35b503461032c578060031936011261032c576020600f54604051908152f35b503461032c5760a036600319011261032c576126b761422d565b6126bf614243565b906126c8614259565b916064356084359060ff60055460a81c166005811015612e905760016126ee91146142fc565b6126f66155a3565b604051627eeac760e11b81526001600160a01b038681166004830152602482018390527f0000000000000000000000000000000000000000000000000000000000000000169290602081604481875afa8015612c8c5782918991612e5a575b506064916127629161451d565b0415612e15576127889086612775614c9d565b509161278283151561436e565b846150eb565b90939a94979298919960018060a01b037f000000000000000000000000000000000000000000000000000000000000000016976040516370a0823160e01b815260018060a01b03861660048201526020816024818d5afa908115612c8c57908e918991612de0575b5010612da2576001600160a01b038216808852600b60205260408820549099908c11612d5d576040516370a0823160e01b81523060048201527f00000000000000000000000000000000000000000000000000000000000000006001600160a01b031696906020816024818b5afa8015610b49578f8a908c92612d27575b61287992935061447b565b11612ce257813b156109fe57604051632770a7eb60e21b81526001600160a01b03919091166004820152602481018f90529088908290604490829084905af18015612c8c57908891612ccd575b5050803b15610bff57604051637a94c56560e11b81526001600160a01b038316600482015260248101899052604481018b9052878160648183865af18015612c8c57908891612cb8575b505060405163463d31d760e11b8152600481018990528781602481855afa908115612c8c57908961297b93928a92612c97575b50604051627eeac760e11b81526001600160a01b03861660048201526024810191909152929091602091849190829081906044820190565b03915afa8015612c8c578890612c58575b61299892508984615652565b878652600b602052604086206129af8b8254614510565b90556129bd8a600854614510565b6008556129cc8c600654614510565b6006556129db89600754614510565b6007556004546001600160a01b031690813b15610bff5760405163c76295b160e01b81526001600160a01b039190911660048201526024810188905260448101929092526064820189905285908290608490829084905af18015610966578a92918691612c3d575b505060405163a9059cbb60e01b81526001600160a01b039190911660048201526024810191909152919060208360448187855af1928315610d89578493612bf9575b506004805460405163a9059cbb60e01b81526001600160a01b039091169181019190915260248101929092526020908290818681604481015b03925af192831561191e578093612bba575b505015612b7e5715612b4357604080519182526020820187905281018390526060810193909352610eb3927f4d667732637549615f3cd28023b13380094dd975c0ac7c1b26916a8b1363b7ec90608090a26001600255604051938493846040919493926060820195825260208201520152565b60405162461bcd60e51b8152602060048201526013602482015272119959481d1c985b9cd9995c8819985a5b1959606a1b6044820152606490fd5b60405162461bcd60e51b8152602060048201526014602482015273155cd95c881d1c985b9cd9995c8819985a5b195960621b6044820152606490fd5b909192506020823d602011612bf1575b81612bd7602093836143aa565b8101031261032c5750612be9906143e0565b905f80612ad0565b3d9150612bca565b9092506020813d602011612c35575b81612c15602093836143aa565b8101031261096257612abe91612c2c6020926143e0565b93915091612a85565b3d9150612c08565b8192935090612c4b916143aa565b610962578890845f612a43565b506020823d602011612c84575b81612c72602093836143aa565b81010312610b0957612998915161298c565b3d9150612c65565b6040513d8a823e3d90fd5b60209250612cae903d808d833e6112f081836143aa565b5050505091612943565b81612cc2916143aa565b610bff57865f612910565b81612cd7916143aa565b610bff57865f6128c6565b60405162461bcd60e51b815260206004820152601d60248201527f496e73756666696369656e7420636f6e74726163742062616c616e63650000006044820152606490fd5b5050506020813d602011612d55575b81612d43602093836143aa565b81010312610b0957518e90898261286e565b3d9150612d36565b60405162461bcd60e51b815260206004820152601760248201527f496e73756666696369656e7420636f6c6c61746572616c0000000000000000006044820152606490fd5b60405162461bcd60e51b8152602060048201526016602482015275496e73756666696369656e7420532062616c616e636560501b6044820152606490fd5b9150506020813d602011612e0d575b81612dfc602093836143aa565b81010312610b09578d90515f6127f0565b3d9150612def565b60405162461bcd60e51b815260206004820152601a60248201527f4e6f20656e6f756768204c20746f6b656e7320746f206275726e0000000000006044820152606490fd5b9150506020813d602011612e88575b81612e76602093836143aa565b81010312610b09575181906064612755565b3d9150612e69565b634e487b7160e01b87526021600452602487fd5b503461032c57604036600319011261032c57612ebe61422d565b604051627eeac760e11b81526001600160a01b03828116600483015260248035908301819052919291907f000000000000000000000000000000000000000000000000000000000000000016602084604481845afa9384156109665785946131d3575b50612f2d841515614c32565b6040516350d5041d60e01b815292606084600481305afa92831561164d57869387958891613188575b50156131355783156130e657866024936040519485809263463d31d760e11b82528560048301525afa9182156109f357879388936130b9575b5060048054604051639e35afc960e01b81526001600160a01b03938416928101929092526024820193909352916020918391168180604481015b03915afa9182156109f35784918893613080575b50612fe89293615cd8565b670de0b6b3a7640000612ffb828761451d565b048281106130745761300d8382614510565b96670de0b6b3a7640000880297808904670de0b6b3a76400001490151715611c1c575061303d8661010098614530565b6130478483614510565b925b604051978852602088015260408701526060860152608085015260a084015260c083015260e0820152f35b86610100979092613049565b915091506020813d6020116130b1575b8161309d602093836143aa565b81010312610b095751908390612fe8612fdd565b3d9150613090565b612fc992945060209193506130d7903d808b833e6112f081836143aa565b50505094909493915091612f8f565b60405162461bcd60e51b815260206004820152602160248201527f496e76616c69642063757272656e742070726963652066726f6d206f7261636c6044820152606560f81b6064820152608490fd5b60405162461bcd60e51b815260206004820152602560248201527f4f7261636c65207072696365206e6f7420617661696c61626c65206f7220746f6044820152641bc81bdb1960da1b6064820152608490fd5b94505093506060833d6060116131cb575b816131a6606093836143aa565b810103126109ef578251936131c26040602086015195016143e0565b9493945f612f56565b3d9150613199565b9093506020813d6020116131ff575b816131ef602093836143aa565b81010312610b095751925f612f21565b3d91506131e2565b503461032c57608036600319011261032c5760243590600382101561032c5750604435610eb361324961323d83856004356155c1565b94909360643591615cd8565b604051938493846040919493926060820195825260208201520152565b503461032c578060031936011261032c576060613281614ae9565b90604051928352602083015215156040820152f35b503461032c57602036600319011261032c576132e76132d9916132bf6132ba61422d565b6146d7565b94919395909260405197889760a0895260a089019061426f565b90878203602089015261426f565b8581036040870152602080855192838152019401915b81811061332b575050508161331d9185610eb3959403606087015261426f565b90838203608085015261426f565b9194955091926020808261334260019489516142a2565b01950191019186959493926132fd565b503461032c578060031936011261032c5760206040515f516020615eb25f395f51905f528152f35b503461032c578060031936011261032c576020600e54604051908152f35b503461032c57604036600319011261032c576133b2614243565b336001600160a01b038216036133ce57610e5190600435615c67565b63334bd91960e11b8252600482fd5b503461032c578060031936011261032c576040517f00000000000000000000000000000000000000000000000000000000000000006001600160a01b03168152602090f35b503461032c57604036600319011261032c57610e51600435613442614243565b9061345c610e47825f526001602052600160405f20015490565b615a74565b503461032c57608036600319011261032c5761347b61422d565b602435906044359061348b61584c565b837f00000000000000000000000000000000000000000000000000000000000000006001600160a01b0316803b1561093a57604051637a94c56560e11b81526001600160a01b038416600482015260248101869052604481018590529082908290606490829084905af18015611f4a57613836575b505061350e82600754614510565b60075560408051848152602081018490526001600160a01b038316917f65a33988ac2fa12a89c206b4b72c5531cc14ff9d0a36acfd9d64ea60747408b791a260048054604051639e35afc960e01b81526001600160a01b038481169382019390935260248101869052911693602082604481885afa91821561164d578692613802575b5061359a614c9d565b508681156137f25750670de0b6b3a76400008302838104670de0b6b3a764000014841517156137de57906135cd91614530565b9460643586116137655760206136459188977f00000000000000000000000000000000000000000000000000000000000000009060ff8216601281145f1461373957509050905b60405163a9059cbb60e01b81526001600160a01b039091166004820152602481019190915291829081906044820190565b0381897f00000000000000000000000000000000000000000000000000000000000000006001600160a01b03165af1801561164d5786906136fe575b61368b9150614583565b6004546001600160a01b031690813b156109ef5760405163c76295b160e01b81526001600160a01b039490941660048501526024840152604483019190915260648201929092529082908290608490829084905af18015611f4a576136ed5750f35b816136f7916143aa565b61032c5780f35b506020813d602011613731575b81613718602093836143aa565b810103126109ef5761372c61368b916143e0565b613681565b3d915061370b565b6012111561375657610a76610a7161375093614561565b90613614565b610a92610a716137509361454e565b60405162461bcd60e51b815260206004820152604560248201527f54686520756e6465726c79696e6720746f20626520696e2061756374696f6e2060448201527f73686f756c64206265206d6f7265207468616e206163637572656420696e74656064820152643932b9ba1760d91b608482015260a490fd5b634e487b7160e01b88526011600452602488fd5b9561364591506020908790613614565b9091506020813d60201161382e575b8161381e602093836143aa565b81010312610b095751905f613591565b3d9150613811565b81613840916143aa565b61096257835f613500565b503461032c578060031936011261032c5760065460075460085460408051938452602084019290925290820152606090f35b503461032c57602036600319011261032c5761389761422d565b61389f615803565b6138aa610e4761449c565b6138b3816158ef565b506001600160a01b03167f0955f82c07229d6a99f48ddd28fe0036270495ad0976e376cd9fa4f18528fdf58280a280f35b503461032c578060031936011261032c576040517f00000000000000000000000000000000000000000000000000000000000000006001600160a01b03168152602090f35b503461032c57602036600319011261032c5760206139556004355f526001602052600160405f20015490565b604051908152f35b503461032c578060031936011261032c576020600754604051908152f35b503461032c578060031936011261032c57600c546040516001600160a01b039091168152602090f35b503461032c57604036600319011261032c576139be61422d565b602435906139ca6157ba565b6040516370a0823160e01b81523060048201527f00000000000000000000000000000000000000000000000000000000000000006001600160a01b031690602081602481855afa80156109665784908690613b1f575b613a2a92506158cf565b60405163a9059cbb60e01b81526001600160a01b038316600482015260248101849052906020908290604490829088905af1908115610d89578491613abb575b507fed16d6dd782c608b61d5c1c0acb1c19a3525a97104c52c147e34cdfafa639a4e91613a98602092614438565b613aa484600e5461447b565b600e556040519384526001600160a01b031692a280f35b90506020813d602011613b17575b81613ad6602093836143aa565b81010312610962577fed16d6dd782c608b61d5c1c0acb1c19a3525a97104c52c147e34cdfafa639a4e91613a98613b0e6020936143e0565b92505091613a6a565b3d9150613ac9565b50506020813d602011613b4d575b81613b3a602093836143aa565b81010312610b095783613a2a9151613a20565b3d9150613b2d565b503461032c57604036600319011261032c5760209060ff906040906001600160a01b03613b8061422d565b168152600a8452818120602435825284522054166040519015158152f35b5034610b09576060366003190112610b0957604435600381101560043560243582610b095760ff60055460a81c1660058110156141c6576001613be191146142fc565b613be96155a3565b613bf481151561436e565b8115614181576040516323b872dd60e01b8152336004820152306024820152604481018390526020816064815f6001600160a01b037f0000000000000000000000000000000000000000000000000000000000000000165af18015614095575f90614146575b613c6491506143ed565b60405163abb12a2360e01b81527f00000000000000000000000000000000000000000000000000000000000000006001600160a01b03169490613caa60048201836142a2565b826024820152602081604481895afa908115614095575f91614114575b5080156140a057936001945b613cde8484876155c1565b969097335f52600b60205260405f20613cf888825461447b565b9055613d068760085461447b565b6008557f00000000000000000000000000000000000000000000000000000000000000006001600160a01b0316803b15610b09576040516340c10f1960e01b8152336004820152602481018b9052905f908290604490829084905af1801561409557614080575b50811561402657803b15610b8757604051634f5ed3b560e01b815233600482015260248101849052604481018990528a90818160648183875af18015611f4a57614011575b50505b6004548a906001600160a01b0316803b1561093a57604051631e67ec1960e31b815233600482015260248101869052604481018b90529082908290606490829084905af18015611f4a57613ffc575b5050613e128960065461447b565b600655613e218860075461447b565b600755338a52600a60205260408a20838b5260205260ff60408b20541615613fc1575b604051627eeac760e11b81523360048201526024810184905290602090829060449082905afa8015610b495785908b90613f8b575b613e8592508433615652565b15613f405781613f2c5760408051868152602081018590529081018890526060810187905233907f7f203fdda9f9cb94d7d21f028b6cdda6dd133a38f9ad7b3e455c217fe4294d1a90608090a35b61253d576040809650519283526020830152848201528260608201528160808201527f6b09923d887ff6b3a7daa9354d80782a148bde233fb233310ebc3a3ad70c307360a03392a2600160025582519182526020820152f35b634e487b7160e01b88526021600452602488fd5b60408051868152602081018590529081018890526060810187905288925033907f179a3bb84f3b9d1f6ea5ef46aadc2b48cc4f50c551092593ffbe2597107ad7ab90608090a3613ed3565b50506020813d602011613fb9575b81613fa6602093836143aa565b81010312610b095784613e859151613e79565b3d9150613f99565b338a526009602052613fd68360408c2061556a565b338a52600a60205260408a20838b5260205260408a20600160ff19825416179055613e44565b81614006916143aa565b610b8757895f613e04565b8161401b916143aa565b610b8757895f613db2565b803b15610b8757604051635b0a931d60e01b815233600482015260248101849052604481018990528a90818160648183875af18015611f4a5761406b575b5050613db5565b81614075916143aa565b610b8757895f614064565b61408d919a505f906143aa565b5f985f613d6d565b6040513d5f823e3d90fd5b50604051630b514f3360e41b81526140bb60048201836142a2565b8260248201526020816044815f8a5af1908115614095575f916140e2575b50935f94613cd3565b90506020813d60201161410c575b816140fd602093836143aa565b81010312610b0957515f6140d9565b3d91506140f0565b90506020813d60201161413e575b8161412f602093836143aa565b81010312610b0957515f613cc7565b3d9150614122565b506020813d602011614179575b81614160602093836143aa565b81010312610b0957614174613c64916143e0565b613c5a565b3d9150614153565b60405162461bcd60e51b815260206004820152601960248201527f496e76616c696420756e6465726c79696e6720616d6f756e74000000000000006044820152606490fd5b634e487b7160e01b5f52602160045260245ffd5b34610b09576020366003190112610b09576004359063ffffffff60e01b8216809203610b0957602091637965db0b60e01b811490811561421c575b5015158152f35b6301ffc9a760e01b14905083614215565b600435906001600160a01b0382168203610b0957565b602435906001600160a01b0382168203610b0957565b604435906001600160a01b0382168203610b0957565b90602080835192838152019201905f5b81811061428c5750505090565b825184526020938401939092019160010161427f565b9060038210156141c65752565b805180835260209291819084018484015e5f828201840152601f01601f1916010190565b80548210156142e8575f5260205f2001905f90565b634e487b7160e01b5f52603260045260245ffd5b1561430357565b60405162461bcd60e51b815260206004820152603a60248201527f496e76616c69642073746174653a2043757272656e7420737461746520646f6560448201527f73206e6f74206d617463682072657175697265642073746174650000000000006064820152608490fd5b1561437557565b60405162461bcd60e51b815260206004820152600d60248201526c496e76616c696420707269636560981b6044820152606490fd5b90601f8019910116810190811067ffffffffffffffff8211176143cc57604052565b634e487b7160e01b5f52604160045260245ffd5b51908115158203610b0957565b156143f457565b606460405162461bcd60e51b815260206004820152602060248201527f556e6465726c79696e6720746f6b656e207472616e73666572206661696c65646044820152fd5b1561443f57565b60405162461bcd60e51b81526020600482015260146024820152731d1c985b9cd9995c951bd2dc1c8819985a5b195960621b6044820152606490fd5b9190820180921161448857565b634e487b7160e01b5f52601160045260245ffd5b5f516020615eb25f395f51905f525f5260016020527f0199d02ea482d80b84b1d8f5e7aa6f9e47e820658eaba1adaf4ae00690c109ec5490565b5f516020615ed25f395f51905f525f5260016020527ff83ca5bd6a1dad662ef2d93f64f64d8f7e1489ee0be5541f2ac482aafad082865490565b9190820391821161448857565b8181029291811591840414171561448857565b811561453a570490565b634e487b7160e01b5f52601260045260245ffd5b60ff6011199116019060ff821161448857565b60ff166012039060ff821161448857565b60ff16604d811161448857600a0a90565b1561458a57565b60405162461bcd60e51b815260206004820152601860248201527f496e746572657374207472616e73666572206661696c656400000000000000006044820152606490fd5b80518210156142e85760209160051b010190565b5f1981146144885760010190565b67ffffffffffffffff81116143cc5760051b60200190565b90614613826145f1565b61462060405191826143aa565b8281528092614631601f19916145f1565b0190602036910137565b919060a083820312610b095782516003811015610b095792602081015192604082015192606083015167ffffffffffffffff8111610b0957830181601f82011215610b095780519167ffffffffffffffff83116143cc57604051906146aa601f8501601f1916602001836143aa565b83825260208484010111610b09575f6020846146d49582608096018386015e8301015293016143e0565b90565b9060018060a01b0382165f52600960205260405f20916040519283602082549182815201915f5260205f20905f5b818110614a8d575050508361471b9103846143aa565b5f927f00000000000000000000000000000000000000000000000000000000000000006001600160a01b031690845b81518110156147f857614792602061476283856145cf565b51604051627eeac760e11b81526001600160a01b0388166004820152602481019190915291829081906044820190565b0381875afa908115614095575f916147c7575b506147b3575b60010161474a565b946147bf6001916145e3565b9590506147ab565b90506020813d82116147f0575b816147e1602093836143aa565b81010312610b0957515f6147a5565b3d91506147d4565b50918415614a155761480985614609565b9161481386614609565b9061481d87614609565b9161483061482a89614609565b98614609565b945f965f5b8151811015614a085761487d602061484d83856145cf565b51604051627eeac760e11b81526001600160a01b038b166004820152602481019190915291829081906044820190565b0381895afa908115614095575f916149d7575b50806148a0575b50600101614835565b6148ad82849b939b6145cf565b5190816148ba84876145cf565b526148c583876145cf565b5260405163463d31d760e11b815260048101829052905f826024818a5afa801561409557838e5f945f936149ae575b50906148ff916145cf565b5261490a83896145cf565b9060038310156141c65791905260048054604051639e35afc960e01b81526001600160a01b038b811693820193909352602481019390935260209183916044918391165afa908115614095575f9161497c575b50816149759161496f6001948c6145cf565b526145e3565b9890614897565b90506020813d82116149a6575b81614996602093836143aa565b81010312610b095751600161495d565b3d9150614989565b6148ff9295506149c99193503d805f833e6112f081836143aa565b5050509490949290916148f4565b90506020813d8211614a00575b816149f1602093836143aa565b81010312610b0957515f614890565b3d91506149e4565b5050979493509591945050565b5050509050602090604051614a2a83826143aa565b5f81525f36813760405192614a3f81856143aa565b5f84525f36813760405192614a5482856143aa565b5f84525f36813760405192614a6983856143aa565b5f84525f36813760405192614a7e81856143aa565b5f8452505f3681379493929190565b8254845260209093019260019283019201614705565b51906001600160501b0382168203610b0957565b908160a0910312610b0957614acb81614aa3565b916020820151916040810151916146d4608060608401519301614aa3565b6003546001600160a01b03168015614c29579060a060049260405193848092633fabe5a360e21b82525afa5f905f90805f955f92614bf0575b50614b345750505090505f905f905f90565b5f82139283614be6575b83614bcf575b83614bbc575b83614ba4575b50508115614b9c5760055460a01c60ff166012811015614b7e5790610a92610a71614b7a93614561565b9291565b6012811115614b975790610a76610a71614b7a9361454e565b509291565b505f92508291565b6001600160501b039081169116101591505f80614b50565b6001600160501b03811615159350614b4a565b9250610e10614bde8642614510565b111592614b44565b8515159350614b3e565b9250945050614c17915060a03d60a011614c22575b614c0f81836143aa565b810190614ab7565b95915094905f614b22565b503d614c05565b505f905f905f90565b15614c3957565b60405162461bcd60e51b815260206004820152601d60248201527f5573657220646f6573206e6f7420686f6c64207468697320746f6b656e0000006044820152606490fd5b90816020910312610b0957516001600160a01b0381168103610b095790565b6003546001600160a01b03168015614ed05760a060049160405192838092633fabe5a360e21b82525afa8015614095575f905f915f935f92614ea8575b505f831315614e63578315614e1e57610e10614cf68542614510565b11614dd9576001600160501b03168015159182614dc5575b505015614d875760055460a01c60ff166012811015614d615790610a92610a71614d3793614561565b915b81837f8eb94c6a87f56bd59f4a2a7d571f32a264458ff5b910a34862b9051e5953442d5f80a3565b6012811115614d805790610a76610a71614d7a9361454e565b91614d39565b5091614d39565b60405162461bcd60e51b8152602060048201526016602482015275436861696e6c696e6b3a205374616c6520707269636560501b6044820152606490fd5b6001600160501b0316101590505f80614d0e565b60405162461bcd60e51b815260206004820152601860248201527f436861696e6c696e6b3a20507269636520746f6f206f6c6400000000000000006044820152606490fd5b60405162461bcd60e51b815260206004820152601c60248201527f436861696e6c696e6b3a20496e76616c69642074696d657374616d70000000006044820152606490fd5b60405162461bcd60e51b815260206004820152601860248201527f436861696e6c696e6b3a20496e76616c696420707269636500000000000000006044820152606490fd5b92505050614ec5915060a03d60a011614c2257614c0f81836143aa565b90939091505f614cda565b60405162461bcd60e51b815260206004820152601960248201527f507269636546656564206e6f7420696e697469616c697a6564000000000000006044820152606490fd5b60405163abb12a2360e01b81525f939291907f00000000000000000000000000000000000000000000000000000000000000006001600160a01b031690614f5f60048201846142a2565b836024820152602081604481855afa908115614095575f91615075575b508061506a57506040516376cc8aa360e11b8152614f9d60048201846142a2565b836024820152602081604481855afa908115614095575f91615038575b5080615030575060446020925f614fe7936040519687958694630b514f3360e41b865260048601906142a2565b60248401525af1908115614095575f9161500057509190565b90506020813d602011615028575b8161501b602093836143aa565b81010312610b0957519190565b3d915061500e565b925050509190565b90506020813d602011615062575b81615053602093836143aa565b81010312610b0957515f614fba565b3d9150615046565b945060019392505050565b90506020813d60201161509f575b81615090602093836143aa565b81010312610b0957515f614f7c565b3d9150615083565b156150ae57565b60405162461bcd60e51b8152602060048201526015602482015274125b9d985b1a59081919591d58dd08185b5bdd5b9d605a1b6044820152606490fd5b93909260018410158061555f575b1561550b57604051627eeac760e11b81526001600160a01b038481166004830152602482018790527f0000000000000000000000000000000000000000000000000000000000000000169490602081604481895afa908115614095575f916154d9575b50801561549e5761516f8260649261451d565b04958615615459575f6024966040519788809263463d31d760e11b82528560048301525afa958615614095575f905f97615437575b5060038110156141c6578061536357508660031c95866009029060098204880361448857677ce66c50e2840000880291808304670de0b6b3a76400001490151715614488576151f291614530565b945b83156153585760048054604051639e35afc960e01b81526001600160a01b039384169281019290925260248201939093529160209183916044918391165afa908115614095575f91615325575b5061524e9060649261451d565b0490670de0b6b3a7640000820290828204670de0b6b3a764000014831517156144885761527a91614530565b90615287848311156150a7565b7f000000000000000000000000000000000000000000000000000000000000000060ff8116601281036152c45750506152c08285614510565b925b565b909290601211156152fa578261079e6152f46152ec6152c094610a76610a71610a7199614561565b958693614561565b87614530565b8261079e61531f6153176152c094610a92610a71610a719961454e565b95869361454e565b8761451d565b90506020813d602011615350575b81615340602093836143aa565b81010312610b0957516064615241565b3d9150615333565b505050505f5f908392565b600181036153b057508660021c95866005029060058204880361448857674563918244f40000880291808304670de0b6b3a76400001490151715614488576153aa91614530565b946151f4565b6002036153f9578695600187901b906001600160ff1b038816880361448857670de0b6b3a7640000820291808304670de0b6b3a76400001490151715614488576153aa91614530565b60405162461bcd60e51b8152602060048201526016602482015275125b9d985b1a59081b195d995c9859d9481b195d995b60521b6044820152606490fd5b905061544e9196503d805f833e6112f081836143aa565b50505095905f6151a4565b60405162461bcd60e51b815260206004820152601e60248201527f43616c63756c61746564206275726e20616d6f756e74206973207a65726f00006044820152606490fd5b60405162461bcd60e51b815260206004820152601360248201527227379026103a37b5b2b739903a3790313ab93760691b6044820152606490fd5b90506020813d602011615503575b816154f4602093836143aa565b81010312610b0957515f61515c565b3d91506154e7565b60405162461bcd60e51b815260206004820152602660248201527f50657263656e74616765206d757374206265206265747765656e20312520616e60448201526564203130302560d01b6064820152608490fd5b5060648411156150f9565b8054680100000000000000008110156143cc5761558c916001820181556142d3565b819291549060031b91821b915f19901b1916179055565b60028054146155b25760028055565b633ee5aeb560e01b5f5260045ffd5b9060038110156141c657806155fd5750677ce66c50e2840000916155e49161451d565b0490816001600160fd1b03811681036144885760031b90565b600181036156325750674563918244f40000916156199161451d565b0490816001600160fe1b03811681036144885760021b90565b6002036153f957671bc16d674ec800009161564c9161451d565b04908190565b600c549293926001600160a01b031690811561577557604051630ebf94ab60e41b81526001600160a01b038216600482015260248101849052602081604481865afa908115614095575f9161573b575b5061570357813b15610b09575f6084926156ea8296604051988997889663585f75af60e01b885260018060a01b031660048801526024870152604486015260648501906142a2565b5af18015614095576156f95750565b5f6152c2916143aa565b60405162461bcd60e51b815260206004820152601060248201526f151bdad95b881a5cc8199c99595e995960821b6044820152606490fd5b90506020813d60201161576d575b81615756602093836143aa565b81010312610b0957615767906143e0565b5f6156a2565b3d9150615749565b60405162461bcd60e51b815260206004820152601a60248201527f6c69717569646174696f6e4d616e61676572206e6f74207365740000000000006044820152606490fd5b335f9081525f516020615e925f395f51905f52602052604090205460ff16156157df57565b63e2517d3f60e01b5f52336004525f516020615eb25f395f51905f5260245260445ffd5b335f9081525f516020615ef25f395f51905f52602052604090205460ff161561582857565b63e2517d3f60e01b5f52336004525f516020615f325f395f51905f5260245260445ffd5b335f9081525f516020615f525f395f51905f52602052604090205460ff161561587157565b63e2517d3f60e01b5f52336004525f516020615ed25f395f51905f5260245260445ffd5b5f81815260016020908152604080832033845290915290205460ff16156158b95750565b63e2517d3f60e01b5f523360045260245260445ffd5b8181106158da575050565b63cf47918160e01b5f5260045260245260445ffd5b6001600160a01b0381165f9081525f516020615e925f395f51905f52602052604090205460ff1661596f576001600160a01b03165f8181525f516020615e925f395f51905f5260205260408120805460ff191660011790553391905f516020615eb25f395f51905f52905f516020615e725f395f51905f529080a4600190565b505f90565b6001600160a01b0381165f9081525f516020615f525f395f51905f52602052604090205460ff1661596f576001600160a01b03165f8181525f516020615f525f395f51905f5260205260408120805460ff191660011790553391905f516020615ed25f395f51905f52905f516020615e725f395f51905f529080a4600190565b6001600160a01b0381165f9081525f516020615ef25f395f51905f52602052604090205460ff1661596f576001600160a01b03165f8181525f516020615ef25f395f51905f5260205260408120805460ff191660011790553391905f516020615f325f395f51905f52905f516020615e725f395f51905f529080a4600190565b5f8181526001602090815260408083206001600160a01b038616845290915290205460ff16615ae7575f8181526001602081815260408084206001600160a01b0396909616808552959091528220805460ff19169091179055339291905f516020615e725f395f51905f529080a4600190565b50505f90565b6001600160a01b0381165f9081525f516020615ef25f395f51905f52602052604090205460ff161561596f576001600160a01b03165f8181525f516020615ef25f395f51905f5260205260408120805460ff191690553391905f516020615f325f395f51905f52905f516020615f125f395f51905f529080a4600190565b6001600160a01b0381165f9081525f516020615f525f395f51905f52602052604090205460ff161561596f576001600160a01b03165f8181525f516020615f525f395f51905f5260205260408120805460ff191690553391905f516020615ed25f395f51905f52905f516020615f125f395f51905f529080a4600190565b6001600160a01b0381165f9081525f516020615e925f395f51905f52602052604090205460ff161561596f576001600160a01b03165f8181525f516020615e925f395f51905f5260205260408120805460ff191690553391905f516020615eb25f395f51905f52905f516020615f125f395f51905f529080a4600190565b5f8181526001602090815260408083206001600160a01b038616845290915290205460ff1615615ae7575f8181526001602090815260408083206001600160a01b0395909516808452949091528120805460ff19169055339291905f516020615f125f395f51905f529080a4600190565b91909160038110156141c65780615d405750806009029060098204036144885781615d0291614510565b6001600160fd1b038216820361448857670de0b6b3a7640000810290808204670de0b6b3a76400001490151715614488576146d49160031b90614530565b60018103615d9f5750806005029060058204036144885781615d6191614510565b6001600160fe1b038216820361448857670de0b6b3a7640000810290808204670de0b6b3a76400001490151715614488576146d49160021b90614530565b600203615dee576001600160ff1b03811681036144885781615dc39160011b614510565b90670de0b6b3a7640000820291808304670de0b6b3a76400001490151715614488576146d491614530565b60405162461bcd60e51b8152602060048201526015602482015274496e76616c6964206c65766572616765207479706560581b6044820152606490fd5b5f546001600160a01b03163303615e3e57565b63118cdaa760e01b5f523360045260245ffd5b818110615e5c575050565b63054365bb60e31b5f5260045260245260445ffdfe2f8788117e7eff1d82e926ec794901d17c78024a50270940304540a733656f0d0199d02ea482d80b84b1d8f5e7aa6f9e47e820658eaba1adaf4ae00690c109ebc5e2d1653feba496cf5ce3a744b90ea18acf0df3d036aba9b2f85992a146790678dee7707521b7c9b92b1070cc1d51daeefd47d09898061ee53bff95426cbe5450efbde2d46c37e9785f1791697f77e94bb7b701e19f1930a668820722d37694f6391f5c32d9c69d2a47ea670b442974b53935d1edc7fd64eb21e047a839171ba49807205ce4d355092ef5a8a18f56e8913cf4a201fbe287825b095693c21775f83ca5bd6a1dad662ef2d93f64f64d8f7e1489ee0be5541f2ac482aafad08285a2646970667358221220279a96e59d85e644a2b0fcec293602652977c0e879c713fd37d5beee16d6310064736f6c634300081c00332f8788117e7eff1d82e926ec794901d17c78024a50270940304540a733656f0da6eef7e35abe7026729641147f7915573c7e97b47efa546f5f6e3230263bcb4950efbde2d46c37e9785f1791697f77e94bb7b701e19f1930a668820722d37694",
  "linkReferences": {},
  "deployedLinkReferences": {},
  "immutableReferences": {
    "8941": [
      {
        "length": 32,
        "start": 1203
      },
      {
        "length": 32,
        "start": 3134
      },
      {
        "length": 32,
        "start": 10283
      },
      {
        "length": 32,
        "start": 13898
      },
      {
        "length": 32,
        "start": 14586
      },
      {
        "length": 32,
        "start": 15403
      }
    ],
    "8944": [
      {
        "length": 32,
        "start": 5241
      },
      {
        "length": 32,
        "start": 5796
      },
      {
        "length": 32,
        "start": 7510
      },
      {
        "length": 32,
        "start": 8700
      },
      {
        "length": 32,
        "start": 10138
      },
      {
        "length": 32,
        "start": 14815
      },
      {
        "length": 32,
        "start": 15627
      }
    ],
    "8947": [
      {
        "length": 32,
        "start": 1534
      },
      {
        "length": 32,
        "start": 4693
      },
      {
        "length": 32,
        "start": 6106
      },
      {
        "length": 32,
        "start": 6842
      },
      {
        "length": 32,
        "start": 8787
      },
      {
        "length": 32,
        "start": 10011
      },
      {
        "length": 32,
        "start": 12010
      },
      {
        "length": 32,
        "start": 13299
      },
      {
        "length": 32,
        "start": 13454
      },
      {
        "length": 32,
        "start": 15475
      },
      {
        "length": 32,
        "start": 18207
      },
      {
        "length": 32,
        "start": 20265
      },
      {
        "length": 32,
        "start": 20771
      }
    ],
    "8949": [
      {
        "length": 32,
        "start": 1753
      },
      {
        "length": 32,
        "start": 9729
      },
      {
        "length": 32,
        "start": 13793
      },
      {
        "length": 32,
        "start": 21129
      }
    ]
  },
  "inputSourceName": "project/contracts/CustodianFixed.sol",
  "buildInfoId": "solc-0_8_28-75ca4b8246f5052cd3ff6fc2d01d440ed54c7a36"
}